:020000001A2EB6
:08000800FF00030E8312031335
:10001000B0000A0EB100040EB2008A110A12742E4A
:100020000330ED07ED0CED0C7F30ED050000ED0B1E
:10003000162808000000000000000000000000007A
:100040000000ED0B1A2808007008F300F2010310FD
:10005000F30DF20DF30DF20D3730F3070318F20A2A
:10006000003072078A007108F200730882000030C5
:10007000F300493042280030F30055304228003068
:10008000F3006D30F2070318F30A73088A00720850
:100090008200313428343134303431343034313426
:1000A000313430343134303431340434083412349F
:1000B0001634203424342834323436344034443432
:1000C000483452345634603464346834723476348C
:1000D000803484348834923496343F3406345B342C
:1000E0004F3466346D347D3407347F346F34C61139
:1000F000C511C0136A08C400051185114211803072
:10010000EB00EB080319A4286B086A0503198B2878
:10011000831685158D28831685110A308312ED000C
:10012000102083160515831205199828640093285A
:100130000A30ED001020831605110A308312ED00FD
:1001400010200310EB0C8128C5154116C11283162F
:1001500085150A308312ED001020831605158312D1
:100160000519B4286400AF280A30ED0010206C1087
:1001700085196C140A30ED001020831605118312C6
:1001800041120A30ED001020ED016C18ED0A080054
:1001900083120313C611C51141150A30ED0010205A
:1001A000051185118316051185110A308312ED00A2
:1001B00010208316051583120519E0286400DB283A
:1001C0000A30ED001020831685150A308312ED00E9
:1001D0001020851DED280519F128C615C211411101
:1001E0000800421641114110C110C111411208000E
:1001F0000A3083120313ED001020C611C5114114FB
:10020000831605158515831205118511051D2529F0
:10021000851D25290A30ED00102005191329C61562
:10022000C215411008008511831685110A3083120A
:10023000ED0010200511831605110A308312ED0020
:100240001020C2154110C5150800C615C215411071
:10025000C1104111C111411208000130EB00EC0145
:1002600008306C0203180800831605138312051367
:100270006B086A0503193E2983160517053083129A
:10028000ED001A208316051703108312EB0DEC0AFC
:100290003029680883169B001C141A088312E90091
:1002A0000800F820D030EA0077206808EA007720BC
:1002B0006908EA007720C82008006E03031D75292D
:1002C0006C086B06031D67296D08EB0072290F305F
:1002D0006B05EF006F08093A031D71291030EB0719
:1002E0007229EB0A6B08F20008006D086B06031D0B
:1002F0007C296C08EB0086290F306B05EF00EF08B6
:10030000031D85291030EB028629EB036B08F200F0
:100310000800EB0108306B020318080001306A0581
:10032000EC006C1885146C1C85100510EA0803108D
:10033000EA0C0514EB0A8A296808EA002D216908ED
:10034000EA002D21080083120313E801E9010830B7
:1003500069020318BE298316051383120513831639
:10036000051706308312ED0010200310E80C051B62
:10037000E8170630ED001A20E90AA7296808E90005
:100380000800C611C511C013C1156818C116681C34
:10039000C112421505118511831685150A30831285
:1003A000ED001020EA018030E900E9080319F22984
:1003B0008316051583120519DF296400DA290A302E
:1003C000ED001020831685158312851DE929690823
:1003D000EA04831605110A308312ED001020031081
:1003E000E90CD529C515C111E8080319FA298316A6
:1003F0008515FC29831685110A308312ED00102023
:100400008316051583120519072A6400022AC511EF
:100410000A30ED001020831605118312C5150A302D
:10042000ED0010206A08EB000800831685150515FD
:100430008312C0016808C3000830C000C101C201B6
:10044000C217C511C61185110511C016C8200800B4
:1004500083120313E801492169080A3A031D0800C1
:100460000130E80049216908D1000230E800492143
:100470006908D2000330E80049216908D30004303C
:10048000E80049216908D4000530E80049216908DD
:10049000D5000630E80049216908D6000730E80099
:1004A00049216908D7000830E80049216908D800C7
:1004B0000930E80049216908D9000A30E8004921DB
:1004C0006908DA000B30E80049216908DB000C30CC
:1004D000E80049216908DC000800F820D030EA0073
:1004E0007720EA017720EA0177203608EA007720B2
:1004F0003708EA0077203808EA0077203908EA0050
:1005000077203A08EA0077203B08EA007720C820E5
:1005100008000F3083120313E800E901512108009D
:100520000E3083120313E8008030E90051210F30B0
:10053000E8008030E90051210800F001F101F201EA
:100540008030F300F401103074020318FC2A031009
:10055000F00DF10D72086E05031DB22A73086F05C8
:100560000319B52AF00A0319F10A0F307005F500D6
:10057000F6017508043C76080318031DF61BC42A0F
:100580000330F0070318F10AF0307005F700F801A6
:100590007708493C78080318031DF81BD32A30302C
:1005A000F0070318F10A00307005F90071080F39DF
:1005B000FA007A08043C031DDF2A7908993C0318E5
:1005C000E52AFA1BE52A0330F10700307005FB002D
:1005D0007108F039FC007C08493C031DF12A7B08B6
:1005E000993C0318F72AFC1BF72A3030F107730DEA
:1005F000F30CF20CF40AA32A7008F4007108F50059
:100600000800EE016C08EF00EC0A6C086F06031D91
:1006100008005E08F0000F306B05F1002420EE00AA
:100620006D086F068A110A12031D182B5F08EE076A
:100630008313203084006F0884076E088000EB0E5F
:100640000F30EB05EF03052B5008013A0319382B47
:10065000033A0319432B013A03194F2B073A0319A5
:10066000882B013A0319932B033A03199D2B080099
:100670003B08EB009930EC00ED016808EE005D21CD
:100680007208BB0008003A08EB001230EC000130A1
:10069000ED006808EE005D217208BA000800390814
:1006A000E900F030690503195A2B390E0F39EB00B8
:1006B0006B08E907E9033C08F0006908F100242011
:1006C000EA0069038A110A12031D7C2BEB01183022
:1006D0006B0203187C2B3D08F0006B08F10024200E
:1006E000EC003B086C068A110A12031D7A2B293094
:1006F000EA007C2BEB0A672B3908EB006A08EC0058
:100700000130ED006808EE005D217208B9000800B4
:100710003808EB000730EC000130ED006808EE000F
:100720005D217208B8003708EB002330EC00ED01C2
:100730006808EE005D217208B7003608EB005930FA
:10074000EC00ED016808EE005D217208B6000800BB
:10075000F201F501F601831203136E08F3006F082E
:10076000F400F11FB92BF217F009F109F00A03198F
:10077000F10A721ACB2B701CC32B7308F50774088F
:100780000318740FF6070310F10CF00C0310F30DAF
:10079000F40DF20AB92BF21F0800F509F609F50A63
:1007A0000319F60A080083120313CF08031D092C4E
:1007B000D008031D092C0130EA00CC080319F22BE4
:1007C000F03034050319F22B340DB40CB30C340D96
:1007D000B40CB30C340DB40CB30C340DB40CB30C1A
:1007E0000230EA003308EB000230EC000330ED0089
:1007F00001233408EB00EC016A08ED000123200816
:100800003F3A0319A001CC080319582C4030A0002E
:10081000582C5003031D1C2C0330C8002030EB0063
:10082000EC010130ED0001233B08EB000230EC004D
:100830000330ED000123582C5008043A031D2F2CDF
:100840000330C800A001A101A2015E08F000380831
:10085000F10024205F07A3008A110A12582C5008C7
:10086000023A03193D2C013A0319402C063A0319A8
:10087000432C033A0319462C492C0330C8004B2C57
:100880000130C8004B2C0530C8004B2C0730C80085
:100890004B2C0830C8003908EB00EC010130ED00AA
:1008A00001233A08EB000230EC000330ED00012395
:1008B0003708EB000430EC000530ED00012336086A
:1008C000EB000630EC000830ED0001230230E900B7
:1008D000083069020318892CEB0102305007EA0046
:1008E0000318EB0A69086A0603196B08031D802CBC
:1008F0008313283084006908840701308000872C26
:100900008313283084006908840700308000E90AD6
:10091000682CA801CE19A80AA9014E19A90A8513A5
:100920006108EA008921851785136308EA00892197
:10093000E8015D0868020318B82C3F1CA62C480883
:100940006806031DA62CEA018921AE2C83132030F2
:100950008400680884070008EA008921831328308E
:100960008400680884070008EA008921E80A992CB5
:10097000851708008312031385136208EA00892192
:100980008316851420308312E800E90120306902C3
:100990000318D72CE80305100130ED001020851C4A
:1009A000D42CE8080310E80D0514E90AC62C8316B8
:1009B0008510831285176808E5000800CC30831283
:1009C0000313E8004430E9009C210800CC30831276
:1009D0000313E800BE30E9009C21A3216908CA0086
:1009E000A3216908C9000800831203136508013AAE
:1009F0000319102D033A0319182D013A0319202D5C
:100A0000073A0319282D013A03192E2D033A031929
:100A1000362D013A03193D2D0F3A0319080008003D
:100A2000E8014E1CE80A4E106808031D4E14080029
:100A3000E801CE1CE80ACE106808031DCE14080099
:100A4000E8014E1DE80A4E116808031D4E15080006
:100A5000CF0A4F08023C031CCF010800D00A5008FF
:100A6000063C031808006D22D00108005008003C25
:100A700003180800E801242308005008003C03186C
:100A800008000130E800242308008316031305172B
:100A90008312E80105138316051332308312ED002B
:100AA0001A208316051707308312ED001A20051B44
:100AB000E6013230ED001A200800831603138E156C
:100AC0000C3085008312850183168601831286010E
:100AD000831681018117073083129F000630900032
:100AE000FF308F008E0083160C147830831292042E
:100AF00012159214C330831692008312CD018B1706
:100B00000B1728220130E800152290226D2289223D
:100B10000800F820D030EA007720EA017720C820CA
:100B2000F820D130EA007720E801C1216B08B50038
:100B3000E801C1216B08B600E801C1216B08B700CC
:100B4000E801C1216B08B800E801C1216B08B900B8
:100B5000E801C1216B08BA000130E800C1216B082F
:100B6000BB00C820080083120313E8014908E9000C
:100B70004A08E804CC01E91BCC0ACC080319C52DAE
:100B8000E809E909E80A0319E90A0630EE00EF016D
:100B90006808F0006908F100A8237508EA007608E3
:100BA000ED006808EC006908EB00690DEB0CEC0C3B
:100BB000690DEB0CEC0C6C08EA076D080318EB0AE6
:100BC000EB076A08EE006B08EF009D227408B30083
:100BD0007508B40008005D25D3234D08003C0318B8
:100BE000ED2D4D1D0E2ED008031D0D2E8925350827
:100BF000293A0319FF2D3508593A031D022E4525C0
:100C0000DE240C2EB5080319092E3508303A031DD1
:100C10000C2E4525E624B325D3234D11CD1E152ECC
:100C20005008003C031CD323CD12BA24E508031D51
:100C3000F424ED2D83120313B501B601B701013081
:100C4000B8000130B9000130BA002330BB000030D9
:100C5000BC000130BD00BE01BF010830C800C901A1
:100C6000CA010230CB00B301B401CC01CD014E105A
:100C7000CE104E11CE114E12CF01D001D101D201B2
:100C8000D301D401D501D601D701D8011C30D90038
:100C90001B30DA001830DB001930DC000830DD00D2
:100CA0000230DE008030DF000730E0004030E1003D
:100CB0004230E200C030E3008830E400A001A1012E
:100CC000A201A301A401A501A601A701A801A901F0
:100CD000AA01AB01AC01AD01AE01AF01E501E60136
:100CE000E7018A110A12EB2D831203130C1C7D2ECF
:100CF000FF308F008E000C104D158C1C882EBE0A04
:100D00003E08093C0318872EBF0ABE01CD168C1081
:100D1000320E8400310E8A00300E8300FF0E7F0EEB
:020D20000900C8
:02400E00183F59
:00000001FF
