:02000000D72FF8
:08000800FF00030E8312031335
:10001000B0000A0EB100040EB2008A150A1235288B
:100020000330F107F10CF10C7F30F1050000F10B0A
:10003000162808000000000000000000000000007A
:100040000000F10B1A280800EB08031D28280800FF
:10005000F930FF3E031D29280000EB0B282808007B
:100060007308F600F5010310F60DF50DF60DF50D0C
:10007000F6070318F50AF6070318F50A4930F607DC
:100080000318F50A003075078A007408F500760831
:10009000820000308A000030F6005F3058280030BF
:1000A0008A000030F6006B3058280030F6008330AC
:1000B000F5070318F60A76088A00750882003134BD
:1000C0002834313430343134303431343134303414
:1000D000313430343134043408341234163420349A
:1000E000243428343234363440344434483452349E
:1000F00056346034643468347234763480348434F2
:100100008834923496343F3406345B344F3466344A
:100110006D347D3407347F346F34C611C511C0137C
:100120006E08C4008711071242118030EF00EF08FB
:100130000319BA286F086E050319A128831607163C
:10014000A328831607120A308312F10010208316A9
:10015000871583128719AE286400A9280A30F10098
:100160001020831687110A308312F100102003102B
:10017000EF0C9728C5154116C112831607160A30D1
:100180008312F10010208316871583128719CA285D
:100190006400C5280A30F10010207010071A70148E
:1001A0000A30F100102083168711831241120A30A1
:1001B000F1001020F1017018F10A080083120313F6
:1001C000C611C51141150A30F10010208711071220
:1001D0008316871107120A308312F100102083164C
:1001E000871583128719F6286400F1280A30F10078
:1001F0001020831607160A308312F1001020071E04
:10020000032987190729C615C21141110800421692
:1002100041114110C110C111411208000A3083126E
:100220000313F1001020C611C51141148316871560
:100230000716831287110712871D3B29071E3B29CA
:100240000A30F100102087192929C615C21541105E
:1002500008000712831607120A308312F1001020DB
:100260008711831687110A308312F1001020C215FE
:100270004110C5150800C615C2154110C110411125
:10028000C111411208000130EF00F0010830700286
:100290000318080083168712831287126F086E05F1
:1002A000031954298316871605308312F1001A208A
:1002B0008316871603108312EF0DF00A4629C61124
:1002C000C511C013C1156E18C1166E1CC11242159E
:1002D00087110712831607160A308312F1001020C7
:1002E000F0018030EF00EF0803199029831687157D
:1002F000831287197D29640078290A30F1001020C3
:10030000831607168312071E87296F08F0048316C9
:1003100087110A308312F10010200310EF0C7329AB
:10032000C515C111EE0803199829831607169A29D5
:10033000831607120A308312F100102083168715E6
:1003400083128719A5296400A029C5110A30F1007C
:100350001020831687118312C5150A30F100102072
:100360007008F10008000E21D030EE008D206C08DE
:10037000EE008D206D08EE008D20DE200800680361
:10038000031DD5296E086D06031DC9296F08ED00F0
:10039000E6290F306D05F0007008093A031DD329D6
:1003A0001030ED07E629ED0AE6296F086D06031DFA
:1003B000DC296E08ED00E6290F306D05F000F0082D
:1003C000031DE5291030ED02E629ED036D08F0006C
:1003D0000800F001083070020318080001306F05B2
:1003E000F10071188614711C86100611EF080310B5
:1003F000EF0C0615F00AEA296C08EE0043216D089F
:10040000EE004321080083120313EC01ED010830D4
:100410006D0203181E2A8316871283128712831611
:10042000871606308312F10010200310EC0C871A97
:10043000EC170630F1001A20ED0A072A6C08ED00CF
:1004400008008316071687158312C0016C08C300C5
:100450000830C000C101C201C217C511C611071280
:100460008711C016DE2008000E21D030EE008D204E
:10047000EE018D20EE018D203608EE008D2037082C
:10048000EE008D203808EE008D203908EE008D201A
:100490003A08EE008D203B08EE008D20DE2008009B
:1004A0000E21D030EE008D206C08EE008D20DE2075
:1004B0000E21D130EE008D200130EE005F21710859
:1004C000ED00DE206D08EE0008000E3083120313ED
:1004D000EC00ED01B3210F30EC00ED01B321080079
:1004E000F401F501F6018030F700F80110307802D0
:1004F0000318D42A0310F40DF50D76087205031DB8
:10050000852A770873050319882AF40A0319F50A5E
:100510000F307405F900FA017908043C7A080318D1
:10052000031DFA1B972A0330F4070318F50AF0306D
:100530007405FB00FC017B08493C7C080318031D83
:10054000FC1BA62A3030F4070318F50A00307405A6
:10055000FD0075080F39FE007E08043C031DB22A19
:100560007D08993C0318B82AFE1BB82A0330F5070A
:10057000003074058316A00083127508F0398316C5
:10058000A1002108493C031DC72A2008993C0318F3
:10059000CE2AA11BCE2A30308312F5078312770DA5
:1005A000F70CF60CF80A762A7408F8007508F900BA
:1005B0000800F101E60A6608F20066037206031DF0
:1005C000FC2A5E08F3000F307005F4003020F100C3
:1005D000670872068A110A12031DF02A5F08F107E4
:1005E0008313203084007208840771088000F00EA5
:1005F0000F30F005F203DD2AE60A08000E21AE30C6
:10060000EE008D20EE018D20EE018D205108EE00D0
:100610008D205208EE008D205308EE008D205408E6
:10062000EE008D205508EE008D205608EE008D203E
:100630005708EE008D205808EE008D205908EE0076
:100640008D205A08EE008D205B08EE008D205C089E
:10065000EE008D20DE200A30EB00242008000E2161
:10066000AE30EE008D20EE018D20EE018D20DE20DB
:100670000E21D130EE008D20EE015F217108D100F6
:10068000EE015F217108D200EE015F217108D300F5
:10069000EE015F217108D400EE015F217108D500E1
:1006A000EE015F217108D600EE015F217108D700CD
:1006B000EE015F217108D800EE015F217108D900B9
:1006C000EE015F217108DA00EE015F217108DB00A5
:1006D0000130EE005F217108DC00DE20080083128B
:1006E00003135008013A0319972B033A0319A02B5F
:1006F000013A0319A92B073A0319B22B013A03193E
:10070000BB2B033A0319C42B013A0319CD2B0F3A23
:100710000319D62B013A0319DF2B033A0319E92BEE
:10072000013A0319F32B073A0319FD2B080052086D
:10073000ED002330EE00EF01BF217008D200080069
:100740005108ED005930EE00EF01BF217008D100D3
:1007500008005408ED002330EE00EF01BF217008BF
:10076000D40008005308ED005930EE00EF01BF211E
:100770007008D30008005608ED002330EE00EF01AA
:10078000BF217008D60008005508ED005930EE0072
:10079000EF01BF217008D50008005808ED00233094
:1007A000EE00EF01BF217008D80008005708ED00E7
:1007B0005930EE00EF01BF217008D700080059083A
:1007C000ED004030EE002030EF00BF217008D9006E
:1007D00008005A08ED005A08EE002030EF00BF2153
:1007E0007008DA0008005B08ED004030EE002030B1
:1007F000EF00BF217008DB0008005C08ED0040300E
:10080000EE005B08EF00BF217008DC0008008312D7
:1008100003134F08013A03191D2C033A0319262C20
:10082000013A0319302C073A0319672C013A0319CE
:10083000702C033A0319782C08003B08ED0099301E
:10084000EE00EF01BF217008BB0008003A08ED0080
:100850001230EE000130EF00BF217008BA0008002E
:100860003A08EB00F0306B0503193B2C3A0E0F39B8
:10087000ED006D08EB07EB033C08F3006B08F40098
:100880003020EC006B038A110A12031D5D2CED0170
:1008900018306D0203185D2C3D08F3006D08F4005C
:1008A0003020EE003B086E068A110A12031D5B2CF5
:1008B0002930EC005D2CED0A482C3908ED006C085D
:1008C000EE000130EF00BF217008B90008003808C1
:1008D000ED000730EE000130EF00BF217008B800D6
:1008E0003708ED002330EE00EF01BF217008B7009C
:1008F0003608ED005930EE00EF01BF217008B60058
:100900000800F601F901FA017208F7007308F8000F
:10091000F51F902CF617F409F509F40A0319F50AE6
:10092000761AA22C741C9A2C7708F90778080318F9
:10093000780FFA070310F50CF40C0310F70DF80DFF
:10094000F60A902CF61F0800F909FA09F90A0319AA
:10095000FA0A0800831203134F084E04EC005008F3
:100960006C040319BE2D4F03031DC42C0330C800B3
:10097000E6010130E7002030F000D9220330E70023
:100980003B08F000D922D02D4F08043A031DDA2C81
:100990000330C8005E30A0005F30A1006E30A200BE
:1009A0005E08F3003808F40030205F07A3008A11C6
:1009B0000A12D02DD0080319962D0530E7005008F3
:1009C000013A0319052D033A0319182D013A0319A9
:1009D000202D073A03192D2D013A0319352D033A1D
:1009E0000319442D013A03194C2D0F3A0319592DBF
:1009F000013A03195F2D033A0319722D013A0319C5
:100A00007A2D073A03198E2DD02D3830A0003030C2
:100A1000A1003F30A2005430A3000530C8000430CC
:100A2000E6005208F000D9225108F000D922D02D5A
:100A30000730C8000630E6005108F000D922D02D5A
:100A40007130A3000530C8000430E6005408F000FF
:100A5000D9225308F000D922D02D0730C800063023
:100A6000E6005308F000D922D02D7C30A00054308D
:100A7000A3000530C8000430E6005608F000D92273
:100A80005508F000D922D02D0730C8000630E60006
:100A90005508F000D922D02D7130A3000530C800D0
:100AA0000430E6005808F000D9225708F000D92297
:100AB000D02D0730C8005708F000D922D02D38308B
:100AC000A0003030A1005430A200A3013F30A400A8
:100AD0005430A5000730C8000630E6005908F00081
:100AE000D922D02D7130A5000630E6005A08F0005A
:100AF000D922D02D3830A0007B30A1003030A200A8
:100B00007830A3003F30A4005430A5000730C8005F
:100B10000630E6005B08F000D922D02D7130A50028
:100B20000630E6005C08F000D922D02D4F08023ACA
:100B30000319A42D013A0319A72D063A0319AA2D6A
:100B4000033A0319AD2DB02D0330C800B22D01308A
:100B5000C800B22D0530C800B22D0730C800B22D34
:100B60000830C800E6010130E7003908F000D9225A
:100B70000330E7003A08F000D922D02D0130E70019
:100B8000E6013308F000D9223408F000D922200809
:100B90003F3A0319A001CB080319D02D4030A00023
:100BA000D008031DDD2D0430E6000530E7003708CE
:100BB000F000D9223608F000D92202304F07ED00AC
:100BC0000230EF0008306F020318FB2D6D086F062E
:100BD000031DF22D8313283084006F088407013031
:100BE0008000F92D8313283084006F0884070030BB
:100BF0008000EF0AE22DA8010518A80AA9018518AE
:100C0000A90A86116108EF00E9218615861163089B
:100C1000EF00E921EE015D086E0203182A2E3F1C49
:100C2000182E48086E06031D182EEF01E921202E0C
:100C30008313203084006E0884070008EF00E92148
:100C40008313283084006E0884070008EF00E92130
:100C5000EE0A0B2E86150800831203138611620814
:100C6000EF00E9218316861420308312EB00EC019B
:100C700020306C020318492EEB0306110130F100FD
:100C80001020861C462EEB080310EB0D0615EC0A0F
:100C9000382E83168610831286156B08E50008002F
:100CA000CC3083120313EC004430ED00FC2108002B
:100CB000CC3083120313EC00BE30ED00FC21032284
:100CC0006D08CA0003226D08C900080083120313CF
:100CD0006508013A0319822E033A03198A2E013A54
:100CE0000319922E073A03199A2E013A0319A02EDE
:100CF000033A0319A82E013A0319B22E0F3A031929
:100D0000BD2E0800EB01871CEB0A6B1887146B1CC7
:100D100087100800EB01071DEB0A6B1807156B1C09
:100D200007110800EB01851CEB0A6B1885146B1C7E
:100D300085100800CE0A4E08023C031CCE010800B4
:100D4000CF0A4F08063C031808003422CF010800E0
:100D5000E801CF080319AE2E07240800D008031DB0
:100D60006F2308000130E800CF080319B92E0724CB
:100D70000800D008031D6F230800D00A50080C3C5F
:100D800003180800D001FE220800831603138716FB
:100D90008312EC0187128316871232308312F1001E
:100DA0001A208316871607308312F1001A20871A3B
:100DB000E9013230F1001A2008008316031385017F
:100DC00083128501831686010E308312860001305E
:100DD00083168600383083128600831681018117BE
:100DE00007309F00063083129000FF308F008E0086
:100DF00083160C1478308312920412159214C330A7
:100E0000831692008312CC018B170B170130EC0074
:100E100021222F230F30EC0050226E08EB00EB1F35
:100E200008006522342208000E21D030EE008D200B
:100E3000EE018D20DE200E21D130EE008D20EE015E
:100E40005F217108B500EE015F217108B600EE0167
:100E50005F217108B700EE015F217108B800EE0153
:100E60005F217108B900EE015F217108BA000130FD
:100E7000EE005F217108BB00DE200800831203131F
:100E8000EC014908ED004A08EC04CB01ED1BCB0A4C
:100E9000CB080319502FEC09ED09EC0A0319ED0AF0
:100EA0000630F200F3016C08F4006D08F5008124AF
:100EB0007908EE007A08F1006C08F0006D08EF0088
:100EC0006D0DEF0CF00C6D0DEF0CF00C7008EE07D3
:100ED00071080318EF0AEF076E08F2006F08F300BD
:100EE00070227808B3007908B4000800DD26AA242F
:100EF0004C08003C0318782F4C1DCB2FCF08031D46
:100F0000972F14273508293A03198A2F3508593A9B
:100F1000031D8D2FC5265026972FB5080319942F32
:100F20003508303A031D972FC52658263E2752080C
:100F30003706031D9F2F51083606031987145408DE
:100F40003706031DA72F53083606031987105608C6
:100F50003706031DAF2F5508360603190715580825
:100F60003706031DB72F5708360603190711340833
:100F7000EB0059086B06031985145A086B06031910
:100F800085105B086B06031905145C086B060319D2
:100F90000510AA244C11CC1ED22F4F08003C031C74
:100FA000AA24CC122C26E508031D6626782F83126E
:100FB0000313B501B601B7010130B8000130B90023
:100FC0000130BA002330BB000030BC000130BD004E
:100FD000BE01BF010830C800C901CA01B301B40194
:100FE000CB01CC014D10CD104D11CD114D12CE01C4
:100FF000CF01D001D101D201D301D401D501D60155
:10100000D701D8012830D9002730DA002430DB009E
:101010002530DC000830DD000230DE008030DF00EB
:101020000730E0004030E1004230E200C030E30031
:101030008830E400A001A101A201A301A401A5013F
:10104000A601A701A801A901AA01AB01AC01AD014C
:10105000AE01AF01E501E6010830E7000130E8002C
:10106000E901EA018A110A12762F831203130C1C7C
:101070003E28FF308F008E000C104C158C1C492828
:10108000BE0A3E08093C03184828BF0ABE01CC1618
:101090008C10320E8400310E8A00300E8300FF0E59
:0410A0007F0E0900B6
:02400E00B13FC0
:00000001FF
