:02000000E22AF2
:08000800FF00030E8312031335
:10001000BA000A0EBB00040EBC008A110A12232B80
:100020000330D907D90CD90C7F30D9050000D90B82
:10003000162808000000000000000000000000007A
:100040000000D90B1A280800C611C511C0135608A4
:10005000C4000511851142118030D700D70803195B
:1000600051285708560503193828831685153A284C
:10007000831685110A308312D900102083160515C6
:10008000831205194528640040280A30D900102041
:10009000831605110A308312D90010200310D70CE3
:1000A0002E28C5154116C112831685150A308312F4
:1000B000D9001020831605158312051961286400E4
:1000C0005C280A30D90010205810851958140A30BD
:1000D000D900102083160511831241120A30D9006D
:1000E0001020D9015818D90A080083120313C61129
:1000F000C51141150A30D90010200511851183164C
:10010000051185110A308312D900102083160515B8
:10011000831205198D28640088280A30D900102020
:10012000831685150A308312D9001020851D9A2860
:1001300005199E28C615C211411108004216411129
:100140004110C110C111411208000A30831203137B
:10015000D9001020C611C511411483160515851547
:10016000831205118511051DD228851DD2280A305C
:10017000D90010200519C028C615C2154110080065
:100180008511831685110A308312D90010200511BC
:10019000831605110A308312D9001020C2154110B0
:1001A000C5150800C615C2154110C1104111C11175
:1001B000411208000130D700D80108305802031856
:1001C00008008316051383120513570856050319F3
:1001D000EB288316051705308312D9001A208316E1
:1001E000051703108312D70DD80ADD28A520D030BB
:1001F000D60024205408D60024205508D6002420F8
:1002000075200800D7010830570203180800013094
:100210005605D80058188514581C85100510D608A6
:100220000310D60C0514D70A03295408D600DA2087
:100230005508D600DA20080083120313D401D50133
:100240000830550203183729831605138312051346
:100250008316051706308312D90010200310D40C22
:10026000051BD4170630D9001A20D50A20295408B6
:10027000D50008008316851505158312C0015408A2
:10028000C3000830C000C101C201C217C511C611A8
:1002900085110511C01675200800A520D030D600A4
:1002A0002420D6012420D6012420D6012420D601E2
:1002B00024200130D60024200130D6002420D6018D
:1002C0002420752008000E3083120313D4008030E0
:1002D000D500F6200F30D4008030D500F62008007D
:1002E000E301E601E7015F08E4006008E500E21FC2
:1002F0007F29E317E109E209E10A0319E20A631A17
:100300009129611C89296408E60765080318650FAF
:10031000E7070310E20CE10C0310E40DE50DE30A1E
:100320007F29E31F0800E609E709E60A0319E70A3F
:1003300008008312031385134F08D6000221851786
:1003400085135108D6000221D4014C085402031829
:10035000BB2983132A308400540884070008D60080
:100360000221831332308400540884070008D60029
:100370000221D40AA52985170800831203138513C7
:100380005008D60002218316851420308312D40031
:10039000D501203055020318DA29D40305100130A5
:1003A000D9001020851CD729D4080310D40D0514BA
:1003B000D50AC92983168510831285175408D300DE
:1003C0000800CC3083120313D4004430D50015212B
:1003D0000800CC3083120313D400BE30D5001521A1
:1003E0001C215508BE001C215508BD0008008312C1
:1003F00003135308013A031D080008008316031372
:1004000005178312D40105138316051332308312A6
:10041000D9001A208316051707308312D9001A2035
:10042000051BC8013230D9001A20080083160313B7
:100430008E150C3085008312850183168601831288
:100440008601831681018117073083129F00CB013B
:100450000130D4003A214D21632108008312031397
:10046000D4013D08D5003E08D404D601D51BD60AD8
:10047000D6080319402AD409D509D40A0319D50A84
:100480000630DF00E0015408E1005508E200702169
:100490006608D7006708DA005408D9005508D80064
:1004A000550DD80CD90C550DD80CD90C5908D707B7
:1004B0005A080318D80AD807DB01DC01DD01DE0188
:1004C00003305802031D662AE8305702031C722AC3
:1004D000D81B722AE830D7020330031C0430D8023C
:1004E000DB0A602A5808803ADF0080305F02031D73
:1004F0007B2A64305702031C842A6430D702D80850
:10050000031CD803DC0A722A5808803ADF008030C6
:100510005F02031D8D2A0A305702031C962A0A30F7
:10052000D702D808031CD803DD0A842A5708DE0046
:100530008313203084005B0884070008AA00203061
:1005400084005C0884074D080007AB00203084005D
:100550005D0884070008AC00203084005E08840732
:100560000008AD00DB080319AA01D608031908002A
:1005700003305802031DBE2AE8305702031CC82A64
:10058000D81BC82A2A08AB002B08AC002C08AD00E9
:100590004030AA000800162299214B08003C03189D
:1005A000CD2ACB1DD62AFE21E121CB114B1EDD2AFF
:1005B000FE21E9212E2299214B12BD21D308031DD2
:1005C000F721CD2A83120313BD01BE010230BF0003
:1005D000C801C9016E30CA00CB010830CC003F30E1
:1005E000A0000630A1005B30A2004F30A3006630AF
:1005F000A4006D30A5007D30A6000730A7007F3035
:10060000A8006F30A9008030CD000730CE00403008
:10061000CF004230D000C030D1008830D200AA01D3
:10062000AB01AC01AD01AE01AF01B001B101B2014E
:10063000B301B401B501B601B701B801B901D301E5
:100640008A110A12CB2A831203130C1C372B831630
:100650000C1C372B83124A08723A0319CB157530DC
:100660004A02031C352BCA014B16CA0A0C1083120E
:100670003C0E84003B0E8A003A0E8300FF0E7F0E74
:0206800009006F
:02400E00183F59
:00000001FF
