:020000007E2B55
:08000800FF00030E8312031335
:10001000BA000A0EBB00040EBC008A110A12C82BDB
:100020000330DF07DF0CDF0C7F30DF050000DF0B64
:10003000162808000000000000000000000000007A
:100040000000DF0B1A280800C611C511C0135C0898
:10005000C4000511851142118030DD00DD0803194F
:1000600051285D085C0503193828831685153A2840
:10007000831685110A308312DF00102083160515C0
:10008000831205194528640040280A30DF0010203B
:10009000831605110A308312DF0010200310DD0CD7
:1000A0002E28C5154116C112831685150A308312F4
:1000B000DF001020831605158312051961286400DE
:1000C0005C280A30DF0010205E1085195E140A30AB
:1000D000DF00102083160511831241120A30DF0061
:1000E0001020DF015E18DF0A080083120313C61117
:1000F000C51141150A30DF00102005118511831646
:10010000051185110A308312DF00102083160515B2
:10011000831205198D28640088280A30DF0010201A
:10012000831685150A308312DF001020851D9A285A
:1001300005199E28C615C211411108004216411129
:100140004110C110C111411208000A30831203137B
:10015000DF001020C611C511411483160515851541
:10016000831205118511051DD228851DD2280A305C
:10017000DF0010200519C028C615C215411008005F
:100180008511831685110A308312DF0010200511B6
:10019000831605110A308312DF001020C2154110AA
:1001A000C5150800C615C2154110C1104111C11175
:1001B000411208000130DD00DE0108305E02031844
:1001C000080083160513831205135D085C050319E7
:1001D000EB288316051705308312DF001A208316DB
:1001E000051703108312DD0DDE0ADD28A520D030AF
:1001F000DC0024205A08DC0024205B08DC002420DA
:1002000075200800DD0108305D0203180800013088
:100210005C05DE005E1885145E1C85100510DC0888
:100220000310DC0C0514DD0A03295A08DC00DA206F
:100230005B08DC00DA20080083120313DA01DB011B
:1002400008305B0203183729831605138312051340
:100250008316051706308312DF0010200310DA0C16
:10026000051BDA170630DF001A20DB0A20295A089E
:10027000DB000800C611C511C013C1155A18C116FC
:100280005A1CC112421505118511831685150A30B5
:100290008312DF001020DC018030DB00DB08031953
:1002A0006B298316051583120519582964005329F3
:1002B0000A30DF001020831685158312851D622900
:1002C0005B08DC04831605110A308312DF0010205E
:1002D0000310DB0C4E29C515C111DA080319732967
:1002E000831685157529831685110A308312DF0060
:1002F00010208316051583120519802964007B29B7
:10030000C5110A30DF001020831605118312C515B0
:100310000A30DF0010205C08DD0008008316851518
:1003200005158312C0015A08C3000830C000C1017E
:10033000C201C217C511C61185110511C01675205D
:100340000800A520D030DC002420DC012420DC01C2
:1003500024203E08DC0024203F08DC00242048083C
:10036000DC0024204908DC0024204A08DC0024208A
:100370004B08DC002420752008000E308312031384
:10038000DA008030DB00F6200F30DA008030DB004E
:10039000F6200800E901EC01ED016508EA006608B5
:1003A000EB00E81FD929E917E709E809E70A03196B
:1003B000E80A691AEB29671CE3296A08EC076B084D
:1003C00003186B0FED070310E80CE70C0310EA0DA0
:1003D000EB0DE90AD929E91F0800EC09ED09EC0A3F
:1003E0000319ED0A08008312031385135508DC0076
:1003F0000221851785135708DC000221DA01520813
:100400005A020318152A83132A3084005A088407D5
:100410000008DC0002218313323084005A0884076C
:100420000008DC000221DA0AFF2985170800831280
:10043000031385135608DC0002218316851420302F
:100440008312DA00DB0120305B020318342ADA035E
:1004500005100130DF001020851C312ADA08031056
:10046000DA0D0514DB0A232A8316851083128517FB
:100470005A08D9000800CC3083120313DA00443044
:10048000DB0015210800CC3083120313DA00BE30E4
:10049000DB0015211C215B08CD001C215B08CC0072
:1004A0000800831203135908013A031D08000800CD
:1004B0008316031305178312DA0105138316051338
:1004C00032308312DF001A2083160517073083129B
:1004D000DF001A20051BCF013230DF001A20080090
:1004E000831603138E150C30850083128501831645
:1004F00086018312860183168101811707308312DA
:100500009F00900190161015101483160C1483127E
:100510000C10D1018B170B170130DA008E21A121AD
:10052000BD210800A520D030DC002420DC012420DF
:100530007520A520D130DC002420DA013A215D08A5
:10054000BD00DA013A215D08BE00DA013A215D08FA
:10055000BF00DA013A215D08C800DA013A215D08DE
:10056000C900DA013A215D08CA000130DA003A21F7
:100570005D08CB007520080083120313DA014C08D4
:10058000DB004D08DA04DC01DB1BDC0ADC080319A4
:10059000CE2ADA09DB09DA0A0319DB0A0630E5009C
:1005A000E6015A08E7005B08E800CA216C08DD0094
:1005B0006D08E0005A08DF005B08DE005B0DDE0C12
:1005C000DF0C5B0DDE0CDF0C5F08DD076008031835
:1005D000DE0ADE07E101E201E301E40103305E022D
:1005E000031DF42AE8305D02031C002BDE1B002BE8
:1005F000E830DD020330031C0430DE02E10AEE2A9B
:100600005E08803AE50080306502031D092B6430E6
:100610005D02031C122B6430DD02DE08031CDE03C6
:10062000E20A002B5E08803AE50080306502031D77
:100630001B2B0A305D02031C242B0A30DD02DE086E
:10064000031CDE03E30A122B5D08E4008313203051
:100650008400610884070008AA0020308400620832
:10066000840753080007AB00203084006308840728
:100670000008AC0020308400640884070008AD0046
:10068000E1080319AA01DC080319080003305E021F
:10069000031D4C2BE8305D02031C562BDE1B562B32
:1006A0002A08AB002B08AC002C08AD004030AA0093
:1006B00008007022F3215108003C03185B2B511DE8
:1006C000792B92223D08293A03196A2B3D08593AA1
:1006D000031D6D2B58223B22772BBD080319742B69
:1006E0003D08303A031D772B58224322BC22F321C8
:1006F00051111722D908031D51225B2B83120313BA
:10070000BD01BE01BF010130C8000130C900013088
:10071000CA002330CB00CC01CD010230CE00CF0186
:10072000D001D1010830D2003F30A0000630A10036
:100730005B30A2004F30A3006630A4006D30A500EE
:100740007D30A6000730A7007F30A8006F30A900D9
:100750008030D3000730D4004030D5004230D6007E
:10076000C030D7008830D800AA01AB01AC01AD0180
:10077000AE01AF01B001B101B201B301B401B501E5
:10078000B601B701B801B901D9018A110A12592B72
:10079000831203130C1CD52B83160C1CD52BFF3096
:1007A00083128F008E000C10511583123C0E8400B2
:0E07B0003B0E8A003A0E8300FF0E7F0E0900FA
:02400E00183F59
:00000001FF
