:02000000442C8E
:08000800FF00030E8312031335
:10001000C8000A0EC900040ECA008A110A12A02CD8
:100020000330EC07EC0CEC0C7F30EC050000EC0B23
:10003000162808000000000000000000000000007A
:100040000000EC0B1A280800C611C511C01369087E
:10005000C4000511851142118030EA00EA08031935
:1000600051286A08690503193828831685153A2826
:10007000831685110A308312EC00102083160515B3
:10008000831205194528640040280A30EC0010202E
:10009000831605110A308312EC0010200310EA0CBD
:1000A0002E28C5154116C112831685150A308312F4
:1000B000EC001020831605158312051961286400D1
:1000C0005C280A30EC0010206B1085196B140A3084
:1000D000EC00102083160511831241120A30EC0047
:1000E0001020EC016B18EC0A080083120313C611F0
:1000F000C51141150A30EC00102005118511831639
:10010000051185110A308312EC00102083160515A5
:10011000831205198D28640088280A30EC0010200D
:10012000831685150A308312EC001020851D9A284D
:1001300005199E28C615C211411108004216411129
:100140004110C110C111411208000A30831203137B
:10015000EC001020C611C511411483160515851534
:10016000831205118511051DD228851DD2280A305C
:10017000EC0010200519C028C615C2154110080052
:100180008511831685110A308312EC0010200511A9
:10019000831605110A308312EC001020C21541109D
:1001A000C5150800C615C2154110C1104111C11175
:1001B000411208000130EA00EB0108306B0203181D
:1001C000080083160513831205136A0869050319CD
:1001D000EB288316051705308312EC001A208316CE
:1001E000051703108312EA0DEB0ADD28A520D03095
:1001F000E90024206708E90024206808E900242099
:1002000075200800EA0108306A020318080001306E
:100210006905EB006B1885146B1C85100510E90847
:100220000310E90C0514EA0A03296708E900DA203B
:100230006808E900DA20080083120313E701E801E7
:100240000830680203183729831605138312051333
:100250008316051706308312EC0010200310E70CFC
:10026000051BE7170630EC001A20E80A202967086A
:10027000E8000800C611C511C013C1156718C116E2
:10028000671CC112421505118511831685150A30A8
:100290008312EC001020E9018030E800E80803191F
:1002A0006B298316051583120519582964005329F3
:1002B0000A30EC001020831685158312851D6229F3
:1002C0006808E904831605110A308312EC00102037
:1002D0000310E80C4E29C515C111E708031973294D
:1002E000831685157529831685110A308312EC0053
:1002F00010208316051583120519802964007B29B7
:10030000C5110A30EC001020831605118312C515A3
:100310000A30EC0010206908EA00080083168515F1
:1003200005158312C0016708C3000830C000C10171
:10033000C201C217C511C61185110511C01675205D
:100340000800A520D030E9002420E9012420E9019B
:1003500024204C08E90024204D08E90024204E0800
:10036000E90024204F08E90024205008E900242057
:100370005108E9002420752008000E308312031371
:10038000E7008030E800F6200F30E7008030E8001A
:10039000F6200800F101F401F501831203136D0842
:1003A000F2006E08F300F01FDB29F117EF09F009E6
:1003B000EF0A0319F00A711AED296F1CE52972087A
:1003C000F40773080318730FF5070310F00CEF0C14
:1003D0000310F20DF30DF10ADB29F11F0800F409F7
:1003E000F509F40A0319F50A080083120313DD085E
:1003F000031D4B2ADE08031D4B2A83132030840083
:100400003F08EA003F0DEA0C3F0DEA0C3F0DEA0CF5
:100410003F0D6A0C84070008AA00203084003F08C2
:10042000840760080007AB00203084003E08EA0023
:100430003F0CEB00EA0CEB0CEA0CEB0CEA0CEB0CBF
:10044000EA0C6A0884070008AC00203084000F30F2
:100450003E05840760080007AD0000303E05E80057
:100460003F08F039E900E808031D3A2AE908031DAE
:100470003A2AAA01DA080319742AF0303F05031951
:10048000482A2A08AB002B08AC0060082C07AD00F6
:100490004030AA00742AF0304F050319582A8313FC
:1004A000203084004F0E0F3984070008AA00592A13
:1004B000AA018313203084000F304F0584076008A1
:1004C0000007AB0020308400500E0F39E8000130E7
:1004D000680584070008AC00203084000F30500508
:1004E000840760080007AD008313203084004D0EA0
:1004F0000F3984070008AE00203084000F304D050E
:10050000840760080007AF00203084004C0E0F39CC
:1005100084070008B000203084000F304C058407A9
:100520000008B10085136208E900022185178513D0
:100530006408E9000221E7015F0867020318BB2A8B
:10054000531CA92A54086706031DA92AE9010221A0
:10055000B12A83132A308400670884070008E90061
:100560000221831332308400670884070008E90001
:100570000221E70A9C2A85170800831203138513BA
:100580006308E90002218316851420308312E700F6
:10059000E801203068020318DA2AE7030510013069
:1005A000EC001020851CD72AE7080310E70D05147E
:1005B000E80AC92A83168510831285176708E600A2
:1005C0000800CC3083120313E7004430E800152103
:1005D0000800CC3083120313E700BE30E800152179
:1005E0001C216808D6001C216808D5000800831269
:1005F00003136608013A0319132B033A03191B2B43
:10060000013A0319232B073A03192B2B013A03193B
:10061000312B033A03190800013A031908000F3A75
:10062000031908000800E7015C1CE70A5C10670872
:10063000031D5C140800E701DC1CE70ADC106708F6
:10064000031DDC140800E7015C1DE70A5C11670864
:10065000031D5C150800DD0A5D08023C031CDD017A
:100660000800DE0A5E08063C03180800A121DE012E
:1006700008008316031305178312E7010513831679
:10068000051332308312EC001A2083160517073049
:100690008312EC001A20051BD8013230EC001A201E
:1006A0000800831603138E150C3085008312850114
:1006B0008316860183128601831681018117073014
:1006C00083129F0006309000FF308F008E0083164B
:1006D0000C1478308312920412159214C3308316CE
:1006E00092008312DB018B170B170130E7008E217C
:1006F000BD210800A520D030E9002420E9012420F4
:100700007520A520D130E9002420E7013A216A08AC
:10071000CB00E7013A216A08CC00E7013A216A08D8
:10072000CD00E7013A216A08CE00E7013A216A08C4
:10073000CF00E7013A216A08D0000130E7003A21F2
:100740006A08D1007520080083120313E7015508D9
:10075000E8005608E704DA01E81BDA0ADA080319A8
:10076000B62BE709E809E70A0319E80A0630ED00A5
:10077000EE016708EF006808F000CA217408E9007C
:100780007508EC006708EB006808EA00680DEA0CE1
:10079000EB0C680DEA0CEB0C6B08E9076C0803180E
:1007A000EA0AEA07BE01BF0103306A02031DDA2B21
:1007B000E8306902031CE72BEA1BE72BE830E9026B
:1007C0000330031C0430EA021030BF07D42B6A0840
:1007D000803AED0080306D02031DF02B6430690219
:1007E000031CF92B6430E902EA08031CEA03BF0A80
:1007F000E72B6A08803AED0080306D02031D022C61
:100800000A306902031C0E2C0A30E902EA08031CB4
:10081000EA031030BE070318BF0AF92B6908BE07A8
:100820006A080318BF0ABF0708005123F5215B08B7
:10083000003C0318172C5B1D382CDE08031D372CD9
:100840007A234B08293A0319292C4B08593A031DDE
:100850002C2C3923E122362CCB080319332C4B08DE
:10086000303A031D362C3923E922A423F5215B11EC
:10087000DB1E3F2C5E08003C031CF521DB12BD2271
:10088000E608031DF722172C83120313CB01CC01BA
:10089000CD010130CE000130CF000130D000233037
:1008A000D100D201D3010830D400D501D6010230E5
:1008B000D700D801D901BE01BF01DA01DB015C100C
:1008C000DC105C11DC115C12DD01DE010830DF00A0
:1008D0003F30A0000630A1005B30A2004F30A300E3
:1008E0006630A4006D30A5007D30A6000730A7005B
:1008F0007F30A8006F30A9008030E0000730E100B1
:100900004030E2004230E300C030E4008830E500CF
:10091000AA01AB01AC01AD01AE01AF01B001B10163
:10092000B201B301B401B501B601B701B801B90113
:10093000E601BA01BB01BC01BD018A110A12152CE6
:10094000831203130C1CA92CFF308F008E000C1097
:100950005B158C1CB42CD20A5208093C0318B32C2A
:10096000D30AD201DB168C104A0E8400490E8A008D
:0A097000480E8300FF0E7F0E090001
:02400E00183F59
:00000001FF
