:040000008A15E32852
:08000800FF00030E8312031335
:10001000B0000A0EB100040EB2008A150A12462979
:100020000330F407F40CF40C7F30F4050000F40BFB
:10003000162808007708FA00F9010310FA0DF90DE7
:10004000FA0DF90DFA070318F90AFA070318F90A65
:100050003330FA070318F90A003079078A00780864
:10006000F9007A08820000308A000030FA00493036
:10007000422800308A000030FA0055304228003013
:10008000FA006D30F9070318FA0A7A088A0079082D
:100090008200313428343134303431343034313426
:1000A000313430343134303431340434083412349F
:1000B0001634203424342834323436344034443432
:1000C000483452345634603464346834723476348C
:1000D000803484348834923496343F3406345B342C
:1000E0004F3466346D347D3407347F346F34000010
:1000F000000000000000000000000000F30B772863
:100100000800EE08031D85280800F930FF3E031D96
:1001100086280000EE0B852808006008F7000F30E5
:100120007505F8001A20F6006A0869068A110A1295
:10013000031D9C286108F60483132030840069089D
:10014000840776088000E90A0800C611C511C013AB
:100150007108C4008711071242118030F200F208C2
:100160000319D228720871050319B92883160716D6
:10017000BB28831607120A308312F400102083165E
:10018000871583128719C6286400C1280A30F40035
:100190001020831687110A308312F40010200310F8
:1001A000F20CAF28C5154116C112831607160A3086
:1001B0008312F40010208316871583128719E22812
:1001C0006400DD280A30F40010207310071A73143D
:1001D0000A30F400102083168711831241120A306E
:1001E000F4001020F4017318F40A080083120313BA
:1001F000C611C51141150A30F400102087110712ED
:100200008316871107120A308312F4001020831618
:100210008715831287190E29640009290A30F40012
:100220001020831607160A308312F4001020071ED0
:100230001B2987191F29C615C21141110800421632
:1002400041114110C110C111411208000A3083123E
:100250000313F4001020C611C5114114831687152D
:100260000716831287110712871D5329071E53296A
:100270000A30F400102087194129C615C215411013
:1002800008000712831607120A308312F4001020A8
:100290008711831687110A308312F4001020C215CB
:1002A0004110C5150800C615C2154110C1104111F5
:1002B000C11141120800F30108307302031808004D
:1002C00001307205F40074188614741C861006112F
:1002D000F2080310F20C0615F30A5C290130F10054
:1002E000F201083072020318080083168712831285
:1002F00087127108700503197F2983168716053048
:100300008312F30077208316871603108312F10DF2
:10031000F20A7129F801F901F801F90103307702B5
:10032000031D9429E8307602031CA129F71BA1299B
:10033000E830F6020330031CF703F7021030F90728
:100340008E297708803AFA0080307A02031DAA29A4
:1003500064307602031CB2296430F602031CF703F2
:10036000F90AA1297708803AFA0080307A02031D41
:10037000BB290A307602031CC6290A30F602031C88
:10038000F7031030F8070318F90AB2297608F807BE
:1003900077080318F90AF9070800C611C511C01338
:1003A000C1157118C116711CC112421587110712AF
:1003B000831607160A308312F4001020F3018030F0
:1003C000F200F2080319FE29831687158312871994
:1003D000EB296400E6290A30F40010208316071682
:1003E0008312071EF5297208F304831687110A3059
:1003F0008312F40010200310F20CE129C515C1117D
:10040000F1080319062A83160716082A831607120D
:100410000A308312F400102083168715831287197F
:10042000132A64000E2AC5110A30F4001020831626
:1004300087118312C5150A30F40010207308F400E8
:1004400008002621D030F100A5206F08F100A5207A
:100450007008F100A520F6200800740E0F39F50091
:100460008D207408F5008D2008006B03031D4B2AB6
:1004700071087006031D3F2A7208F0005C2A0F30D5
:100480007005F3007308093A031D492A0730F00785
:100490005C2AF00A5C2A72087006031D522A710851
:1004A000F0005C2A0F307005F300F308031D5B2A8F
:1004B0000730F0025C2AF0037008F3000800FA012C
:1004C000FD01FE017608FB007708FC00F91F6E2A8B
:1004D000FA17F809F909F80A0319F90A7A1A802AA9
:1004E000781C782A7B08FD077C0803187C0FFE0720
:1004F0000310F90CF80C0310FB0DFC0DFA0A6E2A20
:10050000FA1F0800FD09FE09FD0A0319FE0A08008A
:1005100083120313EF0102304F020319EF0A500850
:10052000EF0452086F040319B52B5003031DA42ACE
:100530000330C800E9010330EA002030F4002D2226
:100540003B08F4002D22E52B5008043A031DBA2A7B
:100550000330C8005E30A0005F30A1006E30A20002
:100560006008F7003808F8001A206107A3008A1114
:100570000A12E52B5008053A031DD02A0130C800A5
:10058000D1080319C82A0630A0005B30A100CC2A8C
:100590005B30A0006630A1007430A200A301E52BFF
:1005A000D20803198D2B0530EA005208013A0319CD
:1005B000FB2A033A03190D2B013A0319152B073AAD
:1005C0000319222B013A03192A2B033A0319392B59
:1005D000013A0319412B0F3A03194E2B013A031923
:1005E000562B033A0319692B013A0319712B073A69
:1005F0000319852BE52B3830A000A1013F30A20064
:100600005430A3000530C8000430E9005408F40059
:100610002D225308F4002D22E52B0730C8000630A8
:10062000E9005308F4002D22E52B7130A3000530BA
:10063000C8000430E9005608F4002D225508F400E3
:100640002D22E52B0730C8000630E9005508F400DC
:100650002D22E52B7C30A0005430A3000530C800CB
:100660000430E9005808F4002D225708F4002D2228
:10067000E52B0730C8000630E9005708F4002D22AA
:10068000E52B7130A3000530C8000430E9005A089A
:10069000F4002D225908F4002D22E52B0730C80064
:1006A0000630E9005908F4002D22E52B7130A00036
:1006B0005F30A1005430A200A3013F30A4005430A9
:1006C000A5000730C8000630E9005B08F4002D22C1
:1006D000E52B7130A5000630E9005C08F4002D22FE
:1006E000E52B7630A0007B30A1005F30A20078308F
:1006F000A3003F30A4005430A5000730C8000630E6
:10070000E9005D08F4002D22E52B7130A5000630CC
:10071000E9005E08F4002D22E52B5008023A031987
:100720009B2B013A03199E2B053A0319A12B013A81
:100730000319A42BA72B0330C800A92B0130C80034
:10074000A92B0530C800A92B0730C800A92B0830F9
:10075000C800E9010130EA003908F4002D22033015
:10076000EA003A08F4002D22E52B0830C8000130D9
:10077000EA004F03031DBE2B0230EA00CC08031928
:10078000D32BF03034050319D32B340DB40CB30C38
:10079000340DB40CB30C340DB40CB30C340DB40CD8
:1007A000B30C0230EA00E9013408F4002D223308CA
:1007B000F4002D226108A30420083F3A0319A00188
:1007C000CC080319E52B4030A000D208031D172CDC
:1007D0000430E900351CEF2B0530EA00F12B08301E
:1007E000EA003708F300D1080319FC2B3708123C44
:1007F0000318FC2B1230F302D1080319042CB7089C
:10080000031D042C1230F3007308F4002D22240879
:100810003F3A0319A401D1080319142C3708113CDD
:100820000318142C0730EA003608F4002D22500873
:10083000F0000230F200083072020318342C700805
:100840007206031D2B2C8313283084007208840742
:1008500001308000322C8313283084007208840712
:1008600000308000F20A1B2CA8010518A80AA90173
:100870008518A90A86116308F2005B218615861186
:100880006508F2005B21F1015F0871020318632C17
:100890003F1C512C48087106031D512CF2015B21AD
:1008A000592C831320308400710884070008F2005B
:1008B0005B21831328308400710884070008F2004C
:1008C0005B21F10A442C861508008312031386115C
:1008D0008830F2005B21861508006E08F0006E215A
:1008E0006F08F0006E21080083120313EE01EF0180
:1008F00008306F0203188F2C831687128312871219
:100900008316871603308312F40010200310EE0CB8
:10091000871AEE170630F3007720EF0A782C6E085E
:10092000EF0008008316071687158312C0016F08B1
:10093000C3000830C000C101C201C217C511C611F1
:1009400007128711C016F62008002621D030F100CA
:10095000A520F101A520F101A5203608F100A52070
:100960003708F100A5203808F100A5203908F1006A
:10097000A5203A08F100A5203B08F100A520F620AB
:1009800008002621D030F100A5206F08F100A52035
:10099000F6202621D130F100A5200130F100CD2133
:1009A0007408F000F6207008F10008000E30831281
:1009B0000313EF00F00121220F30EF00F00121229C
:1009C000080083120313EE014908EF004A08EE0401
:1009D0006E08F0006F08F100CC01F11BCC0ACC08C6
:1009E0000319F72CF009F109F00A0319F10A06308E
:1009F000F600F7017008F8007108F9005F227D0821
:100A0000F2007E08F5007008F4007108F300710D23
:100A1000F30CF40C710DF30CF40C7408F207750868
:100A20000318F30AF3077208F6007308F7008A2127
:100A30007808B3007908B4003408CB004F03031DD5
:100A4000080004306E07F7006F08F9000318F90A70
:100A50007908F600790DF60CF70C790DF60CF70C09
:100A6000790DF60CF70C6E08F7076F08F80076089A
:100A70000318F80AF8074030F70701300318F80A9E
:100A8000F8077708F0007808F100CC01F11BCC0AD8
:100A9000CC080319502DF009F109F00A0319F10AE5
:100AA0007008F6007108F7008A217808B300790809
:100AB000B40008002621AE30F100A520F101A520E8
:100AC000F101A5204430F100A5205308F100A52034
:100AD0005408F100A5205508F100A5205608F100A2
:100AE000A5205708F100A5205808F100A5205908B5
:100AF000F100A5205A08F100A5205B08F100A5200F
:100B00005C08F100A5205D08F100A5205E08F10059
:100B1000A5205108F100A520F6200A30EE00812022
:100B200008002621AE30F100A520F101A520F10139
:100B3000A520F6202621AF30F100A520F101CD211E
:100B40007408EF006F08443A0319AA2D0130F10030
:100B5000CD21DF2DF101CD217408D300F101CD218C
:100B60007408D400F101CD217408D500F101CD2124
:100B70007408D600F101CD217408D700F101CD2110
:100B80007408D800F101CD217408D900F101CD21FC
:100B90007408DA00F101CD217408DB00F101CD21E8
:100BA0007408DC00F101CD217408DD00F101CD21D4
:100BB0007408DE000130F100CD217408D100F62068
:100BC0000800831203135208013A0319092E033A4D
:100BD0000319122E013A03191B2E073A0319242E6A
:100BE000013A03192D2E033A0319362E013A03193F
:100BF0003F2E0F3A0319482E013A0319512E033A9A
:100C000003195B2E013A03196B2E073A0319742E50
:100C100008005408F0002330F100F2013522730877
:100C2000D40008005308F0005930F100F2013522D9
:100C30007308D30008005608F0002330F100F201D9
:100C400035227308D60008005508F0005930F1002D
:100C5000F20135227308D50008005808F00023304F
:100C6000F100F20135227308D80008005708F0009F
:100C70005930F100F20135227308D70008005A08F4
:100C8000F0002330F100F20135227308DA00080089
:100C90005908F0005930F100F20135227308D900EB
:100CA00008005B08F0004030F1002030F2003522EF
:100CB0007308DB0008005C085B020318612E5B0808
:100CC000DC005C08F0005B08F1002030F200352207
:100CD0007308DC0008005D08F0004030F100F2010C
:100CE00035227308DD0008005D085E0203187A2EC5
:100CF0005D08DE005E08F0004030F1005D08F200A3
:100D000035227308DE000800831203135008013AED
:100D100003199D2E033A0319A62E013A0319B02E8A
:100D2000073A0319E72E013A0319F12E033A031982
:100D3000F72E013A0319002F08003B08F000993004
:100D4000F100F20135227308BB0008003A08F000F8
:100D50001230F1000130F20035227308BA000800A9
:100D60003A08EE00F0306E050319BB2E3A0E0F392B
:100D7000F0007008EE07EE033C08F7006E08F8007C
:100D80001A20EF006E038A110A12031DDD2EF001F6
:100D9000183070020318DD2E3D08F7007008F800C7
:100DA0001A20F1003B0871068A110A12031DDB2E7E
:100DB0002930EF00DD2EF00AC82E3908F0006F0848
:100DC000F1000130F20035227308B900080038083C
:100DD000F0000730F1000130F20035227308B8004E
:100DE0000800D10A5108023C031CD1010800370851
:100DF000F0002330F100F20135227308B70008003B
:100E00003608F0005930F100F20135227308B600BF
:100E100008008312031386116408F2005B21831615
:100E2000861420308312EE00EF0120306F02031889
:100E3000252FEE0306110130F4001020861C222F0E
:100E40000310EE0D0615EF0A152F83168610831278
:100E500086156E08E7000800CC3083120313EE00FD
:100E60004430EF006D240800CC3083120313EE00F1
:100E7000BE30EF006D2474246F08CA0074246F081C
:100E8000C90008008312031367081F3A03195E2F75
:100E9000083A0319662F183A03196E2F083A0319F6
:100EA000762F1C3A03197F2F083A0319882F183A16
:100EB0000319922F083A03199D2F0800EE01871C91
:100EC000EE0A6E1887146E1C87100800EE01071DCD
:100ED000EE0A6E1807156E1C07110800EE014E1D74
:100EE000EE0A4E116E08031D4E150800D001D20106
:100EF000CF0A4F08033C031CCF01E1240800D201B4
:100F0000D00A5008073C03180800A524D0010800A7
:100F1000EB01D00803198E2F84260800D208031D88
:100F2000E12508000130EB00D0080319992F842631
:100F30000800D208031DE1250800D001D20A52089A
:100F40000C3C03180800D2015A250800831603132D
:100F500087168312EE0187128316871232308312AE
:100F6000F30077208316871607308312F30077206B
:100F7000871AEC013230F300772008008316031340
:100F8000850183128501831686010E308312860047
:100F90002130831687003830831287008316810141
:100FA000811707309F000115811401143D30831211
:100FB00081000B118B1607309000FF308F008E00E0
:100FC00083160C148312CD018B170B170130EF0021
:100FD000922491250F30EF00C1247108EE00EE1F1E
:100FE000F32FD624A5246524882208002621D0309A
:100FF000F100A520F101A520F6202621D130F10035
:10100000A520F101CD217408B500F101CD217408AE
:10101000B600F101CD217408B700F101CD217408AB
:10102000B800F101CD217408B900F101CD21740897
:10103000BA000130F100CD217408BB00F620080091
:101040008A11BE274D08003C8A15031822284D1D21
:10105000C328D008031D69288A11F6273508293AC4
:101060008A15031937283508593A031D3C288A1177
:10107000A6272C278A154728B508031943283508C1
:10108000303A031D47288A11A6273427E124B508E2
:101090008A15031D69283808073A031D692839088D
:1010A000243C031869283703031D5D283A08033AD6
:1010B000031D5D28B70A8A11A5243708023A8A154C
:1010C000031D69283A08103A031D6928B7038A11DD
:1010D000A524D2088A15031DBA2856085406031DF4
:1010E0007528550853060319852854083706031D2B
:1010F0007D28530836060319871456083706031D42
:10110000852855083606031987105A085806031D06
:101110008D285908570603199D2858083706031DBE
:10112000952857083606031907155A083706031D70
:101130009D2859083606031907115C085B06031938
:10114000A9285B084B02031885144B085C0203189E
:1011500085104E1985145E085D060319B7284B08E3
:101160005D02031805145E084B0203180510CC0835
:10117000031D0514D208031DC228D008031DC22870
:101180008A1188224D118A15CD1C22283E08093C5F
:101190000318D428BF0ABE01D008031DD228D208E4
:1011A0000319D4288A1188228A110927680867063A
:1011B0008A150319E0288A11422788226708E80067
:1011C000CD108A15222883120313B501B601B70189
:1011D0000130B8000130B9000130BA002330BB0043
:1011E0000030BC000130BD00BE01BF010830C800A6
:1011F0000130C9004630CA00B301B401CB01CC01B3
:10120000CD014E10CE104E11CE114E12CF01D00195
:10121000D101D201D301D401D501D601D701D80122
:10122000D901DA012830DB002730DC002430DD0072
:101230002530DE000830DF000230E0008030E100C1
:101240000730E2004030E3004230E400C030E50007
:101250008830E600A001A101A201A301A401A5011B
:10126000A601A701A801A901AA01AB01AC01AD012A
:10127000AE01AF01E701E801E9010830EA00013001
:10128000EB00EC01ED018A150A1220280B1D4F29F5
:1012900083120313BE0A3D308100CD140B1183125B
:1012A00003130C1C5829FF308F008E000C104D15B5
:1012B000320E8400310E8A00300E8300FF0E7F0E46
:0212C000090023
:02400E00B13FC0
:00000001FF
