:040000008A15F7293D
:08000800FF00030E8312031335
:10001000B0000A0EB100040EB2008A150A125C2A62
:100020000330F907F90CF90C7F30F9050000F90BE2
:10003000162808007C088316A100A0010310A10D5A
:10004000A00DA10DA00DA1070318A00AA107031878
:10005000A00A3630A1070318A00A003020078A0042
:1000600083127D088316A0002108820000308A00D8
:100070000030A1004C30452800308A000030A1003B
:10008000583045280030A1007030A0070318A10A9D
:1000900021088A0020088200313428343134303479
:1000A000313430343134313430343134303431342B
:1000B00004340834123416342034243428343234CE
:1000C0003634403444344834523456346034643422
:1000D000683472347634803484348834923496347C
:1000E0003F3406345B344F3466346D347D3407342A
:1000F0007F346F34000000000000000000000000AA
:100100000000F80B7A280800F408031D882808006E
:10011000F930FF3E031D89280000F40B88280800F1
:100120006508FC000F307A05FD001A208312FB00E1
:100130006F086E068A110A12031DA0286608FB04C8
:100140008313203084006E0884077B088000EE0A49
:100150000800C611C511C0137608C4008711071224
:1001600042118030F700F7080319D6287708760582
:100170000319BD2883160716BF28831607120A30F5
:100180008312F90010208316871583128719CA2855
:100190006400C5280A30F9001020831687110A3040
:1001A0008312F90010200310F70CB328C51541166F
:1001B000C112831607160A308312F9001020831625
:1001C000871583128719E6286400E1280A30F900B0
:1001D00010207810071A78140A30F90010208316BE
:1001E0008711831241120A30F9001020F9017818A2
:1001F000F90A080083120313C611C51141150A300C
:10020000F9001020871107128316871107120A3090
:100210008312F9001020831687158312871912297B
:1002200064000D290A30F9001020831607160A30E1
:100230008312F9001020071E1F2987192329C615CC
:10024000C21141110800421641114110C110C111E3
:10025000411208000A3083120313F9001020C6115E
:10026000C5114114831687150716831287110712CB
:10027000871D5729071E57290A30F90010208719B2
:100280004529C615C215411008000712831607122A
:100290000A308312F90010208711831687110A3063
:1002A0008312F9001020C2154110C5150800C615AB
:1002B000C2154110C1104111C11141120800831330
:1002C000203084007908840700083F3A031D0800A5
:1002D00083132030840079088407003080000800F0
:1002E000F801083078020318080001307705F9009A
:1002F00079188614791C86100611F7080310F70C7C
:100300000615F80A71290130F600F7010830770266
:100310000318080083168712831287127608750562
:10032000031994298316871605308312F8007A2062
:100330008316871603108312F60DF70A8629831693
:10034000A001A101A001A101033083127D02031DC0
:10035000AB29E8307C02031CB929FD1BB929E83020
:10036000FC020330031CFD03FD0210308316A107BD
:10037000A42983127D08803A8316A20080302202CD
:10038000031DC529643083127C02031CCF2964300D
:100390008312FC02031CFD038316A10AB9298312F0
:1003A0007D08803A8316A20080302202031DDB29DB
:1003B0000A3083127C02031CE8290A308312FC02F3
:1003C000031CFD0310308316A0070318A10ACF29D0
:1003D00083127C088316A00783127D08031CF22970
:1003E0008316A10A8316A1070800C611C511C01300
:1003F000C1157618C116761CC11242158711071255
:10040000831607160A308312F9001020F801803095
:10041000F700F7080319262A831687158312871910
:10042000132A64000E2A0A30F900102083160716DA
:100430008312071E1D2A7708F804831687110A30D5
:100440008312F90010200310F70C092AC515C111F9
:10045000F60803192E2A83160716302A8316071268
:100460000A308312F900102083168715831287192A
:100470003B2A6400362AC5110A30F9001020831681
:1004800087118312C5150A30F90010207808F90089
:1004900008002A21D030F600A9207408F600A9200F
:1004A0007508F600A920FA200800790E0F39FA0025
:1004B00090207908FA00902008007003031D732A29
:1004C00077087606031D672A7808F600842A0F301D
:1004D0007605F9007908093A031D712A0730F607F5
:1004E000842AF60A842A78087606031D7A2A770871
:1004F000F600842A0F307605F900F908031D832AD7
:100500000730F602842AF6037608F9000800A201F3
:10051000A501A60183127C088316A30083127D081F
:100520008316A400A11F9A2AA217A009A109A00A54
:100530000319A10A221AAC2A201CA42A2308A50701
:1005400024080318240FA6070310A10CA00C031005
:10055000A30DA40DA20A9A2AA21F0800A509A609A4
:10056000A50A0319A60A080083120313F401023036
:1005700050020319F40A5108F404530874040319CF
:10058000232C5103031DD02A0330C900EE01033090
:10059000EF002030F90055223B08F9005522512C7C
:1005A0005108043A031DE72A0330C9005E30A00059
:1005B0005F30A1006E30A2006508FC003808FD0025
:1005C0001A2083126607A3008A110A12512C5108BF
:1005D000053A031DFD2A0130C900D2080319F52A86
:1005E0000630A0005B30A100F92A5B30A000663025
:1005F000A1007430A200A301512CD3080319F62BDB
:100600000530EF005308013A0319342B033A03195C
:10061000462B013A03194E2B073A03195B2B013A7B
:100620000319632B033A0319742B013A03197C2B2A
:100630000F3A0319892B013A0319912B033A031935
:10064000A22B013A0319AA2B073A0319B72B013A37
:100650000319BF2B033A0319D22B013A0319DA2BE2
:100660001F3A0319EE2B512C3830A000A1013F3066
:10067000A2005430A3000530C9000430EE00550834
:10068000F90055225408F9005522512C0730C900B1
:100690000630EE005408F9005522512C7130A300A9
:1006A0000530C9000430EE005708F90055225608FD
:1006B000F9005522512C0730C9000630EE005608CB
:1006C000F9005522512C7C30A0000630A100543096
:1006D000A3000530C9000430EE005908F900552286
:1006E0005808F9005522512C0730C9000630EE0099
:1006F0005808F9005522512C7130A3000530C9006B
:100700000430EE005B08F90055225A08F900552222
:10071000512C0730C9000630EE005A08F900552266
:10072000512C7C30A0005B30A1005430A300053078
:10073000C9000430EE005D08F90055225C08F9009C
:100740005522512C0730C9000630EE005C08F90034
:100750005522512C7130A3000530C9000430EE0041
:100760005F08F90055225E08F9005522512C073028
:10077000C9000630EE005E08F9005522512C713098
:10078000A0005F30A1005430A200A3013F30A400BC
:100790005430A5000730C9000630EE006008F900AB
:1007A0005522512C7130A5000630EE006108F90089
:1007B0005522512C7630A0007B30A1005F30A20082
:1007C0007830A3003F30A4005430A5000730C900A2
:1007D0000630EE006208F9005522512C7130A50058
:1007E0000630EE006308F9005522512C5108023AF8
:1007F0000319042C013A0319072C053A03190A2C92
:10080000013A03190D2C102C0330C900122C0130B1
:10081000C900122C0530C900122C0730C900122C57
:100820000830C900EE010130EF003908F900552207
:10083000F9015F210330EF003A08F9005522023038
:10084000F9005F21512C0830C9000130EF0050033E
:10085000031D2C2C0230EF00CD080319412CF03081
:1008600034050319412C340DB40CB30C340DB40C05
:10087000B30C340DB40CB30C340DB40CB30C023007
:10088000EF00EE013408F90055223308F900552233
:100890006608A304F9015F21CD080319512C4030EB
:1008A000A000D308031D8B2C351C592C0530EF00FC
:1008B0005B2C0830EF003708F800D20803196F2CC2
:1008C0003708123C03186F2C1230F8020F307805ED
:1008D000F9007908073C03186F2C0630F802D2089B
:1008E0000319772CB708031D772C1230F800043059
:1008F000EE007808F90055220430F9005F21D20893
:100900000319882C3708113C0318882C0730EF0096
:100910003608F90055225108F5000230F70008307A
:1009200077020318A82C75087706031D9F2C8313E4
:10093000283084007708840701308000A62C8313B8
:10094000283084007708840700308000F70A8F2C55
:10095000A8010518A80AA9018518A90A861168081E
:10096000F7007021861586116A08F7007021F601DC
:10097000640876020318D72C481CC52C4908760653
:10098000031DC52CF7017021CD2C8313203084006A
:10099000760884070008F70070218313283084004C
:1009A000760884070008F7007021F60AB82C86152F
:1009B00008008312031386118830F7007021861512
:1009C00008007308F50083217408F50083210800EE
:1009D00083120313F301F401083074020318032D8A
:1009E00083168712831287128316871603308312A9
:1009F000F90010200310F30C871AF3170630F800E3
:100A00007A20F40AEC2C7308F40008008316071609
:100A100087158312C0017408C3000830C000C101EB
:100A2000C201C217C511C61107128711C016FA20DC
:100A300008002A21D030F600A920F601A920F601ED
:100A4000A9203608F600A9203708F600A9203808A2
:100A5000F600A9203908F600A9203A08F600A920D6
:100A60003B08F600A920FA2008002A21D030F60021
:100A7000A9207408F600A920FA202A21D130F60016
:100A8000A9200130F600F5217908F500FA20750853
:100A9000F60008000E3083120313F400F50149221A
:100AA0000F30F400F5014922080083120313F4010A
:100AB0004A08F5004B08F4047408F6007508F700BE
:100AC000CD01F71BCD0ACD0803196B2DF609F709E7
:100AD000F60A0319F70A0630FC00FD0176088316B2
:100AE000A000831277088316A100872225088312AD
:100AF000F800831626088312FB007608FA007708B0
:100B0000F900770DF90CFA0C770DF90CFA0C7A084C
:100B1000F8077B080318F90AF9077808FC00790838
:100B2000FD009F2120088312B30083162108831241
:100B3000B4003408CC005003031D080004307407CF
:100B4000FD0075088316A0000318A00A2008831270
:100B5000FC008316200D8312FC0CFD0C8316200D67
:100B60008312FC0CFD0C8316200D8312FC0CFD0C73
:100B70007408FD077508FE007C080318FE0AFE07CE
:100B80004030FD0701300318FE0AFE077D08F6001D
:100B90007E08F700CD01F71BCD0ACD080319D52D2E
:100BA000F609F709F60A0319F70A7608FC00770830
:100BB000FD009F2120088312B300831621088312B1
:100BC000B40008002A21AE30F600A920F601A920C1
:100BD000F601A9204430F600A9205408F600A92007
:100BE0005508F600A9205608F600A9205708F60077
:100BF000A9205808F600A9205908F600A9205A088B
:100C0000F600A9205B08F600A9206008F600A920DC
:100C10006108F600A9206208F600A9206308F60022
:100C2000A9205208F600A9205C08F600A9205D085A
:100C3000F600A9205E08F600A9205F08F600A920AA
:100C4000FA200A30F400842008002A21AE30F60091
:100C5000A920F601A920F601A920FA202A21AF3007
:100C6000F600A920F601F5217908F4007408443A49
:100C700003193E2E0130F600F521832EF601F521F1
:100C80007908D400F601F5217908D500F601F5219F
:100C90007908D600F601F5217908D700F601F5218B
:100CA0007908D800F601F5217908D900F601F52177
:100CB0007908DA00F601F5217908DB00F601F52163
:100CC0007908E000F601F5217908E100F601F52147
:100CD0007908E200F601F5217908E300F601F52133
:100CE0007908D200F601F5217908DC00F601F5213A
:100CF0007908DD00F601F5217908DE000130F60003
:100D0000F5217908DF00FA20080083120313530845
:100D1000013A0319B92E033A0319C22E013A0319F5
:100D2000CB2E073A0319D42E013A0319DD2E033ACC
:100D30000319E62E013A0319EF2E0F3A0319F82E84
:100D4000013A0319012F033A03190A2F013A031933
:100D5000132F073A03191C2F013A0319252F033AC1
:100D600003192F2F013A03193F2F1F3A0319482F58
:100D700008005508F6002330F700F8015D227908D5
:100D8000D50008005408F6005930F700F8015D223C
:100D90007908D40008005708F6002330F700F8015E
:100DA0005D227908D70008005608F6005930F70090
:100DB000F8015D227908D60008005908F6002330B2
:100DC000F700F8015D227908D90008005808F600FC
:100DD0005930F700F8015D227908D80008005B0857
:100DE000F6002330F700F8015D227908DB000800E7
:100DF0005A08F6005930F700F8015D227908DA0048
:100E000008005D08F6002330F700F8015D2279083C
:100E1000DD0008005C08F6005930F700F8015D229B
:100E20007908DC0008005F08F6002330F700F801BD
:100E30005D227908DF0008005E08F6005930F700EF
:100E4000F8015D227908DE0008006008F6004030F5
:100E5000F7002030F8005D227908E0000800610802
:100E600060020318352F6008E1006108F600600891
:100E7000F7002030F8005D227908E10008006208E0
:100E8000F6004030F700F8015D227908E200080022
:100E90006208630203184E2F6208E3006308F6003D
:100EA0004030F7006208F8005D227908E30008008E
:100EB000831203135108013A0319712F033A0319DE
:100EC0007A2F013A0319842F073A0319BD2F013AEB
:100ED0000319C72F033A0319CD2F013A0319D62F4F
:100EE00008003B08F6009930F700F8015D22790808
:100EF000BB0008003A08F6001230F7000130F80095
:100F00005D227908BA0008003A08F400F030740550
:100F100003198F2F3A0E0F39F6007608F407F40301
:100F20003C08FC007408FD001A208312F5007403CD
:100F30008A110A12031DB32FF60118307602031826
:100F4000B32F3D08FC007608FD001A208312F7003D
:100F50003B0877068A110A12031DB12F2930F500CC
:100F6000B32FF60A9D2F3908F6007508F7000130F7
:100F7000F8005D227908B90008003808F60007304B
:100F8000F7000130F8005D227908B8000800D20AA5
:100F90005208023C031CD20108003708F600233037
:100FA000F700F8015D227908B70008003608F6005E
:100FB0005930F700F8015D227908B6000800831265
:100FC000031386116908F7007021831686142030F8
:100FD0008312F400F501203075020318FB2FF4038F
:100FE00006110130F9001020861CF82F0310F40DB3
:100FF0000615F50AEB2F83168610831286157408E2
:10100000EC000800CC3083120313F3004430F400EA
:101010008A11E1240800CC3083120313F300BE30A0
:10102000F4008A11E124E8247408CB00E824740851
:10103000CA000800831203136C081F3A03193628EC
:10104000083A03193E28183A03194628083A0319A2
:101050004E281C3A03195B28083A03196528183AE8
:1010600003197128083A03197E280800F401871C27
:10107000F40A74188714741C87100800F401071D03
:10108000F40A74180715741C07110800F4014F1CAA
:10109000F40A4F107408031D4F140800D3088A1176
:1010A000031DE225D101D301D00A5008033C031CE3
:1010B000D00155250800D301D10A5108073C031877
:1010C00008008A111925D1010800F001D10803197F
:1010D0006C288A1158270800D3088A11031D852619
:1010E00008000130F000D108031979288A11582727
:1010F0000800D3088A11031D85260800D101D30AF0
:101100005308103C031808008A11E225D301080097
:101110008316031387168312F3018712831687122F
:1011200032308312F8008A117A208316871607302E
:101130008312F8007A20871AF1013230F8007A2001
:101140000800831603138501831285018316860127
:101150000E308312860021308316870038308312C8
:10116000870083168101811707309F0001158114C4
:1011700001143D30831281000B118B160730900053
:10118000FF308F008E0083160C148312CE010130C5
:10119000F4008A110625F430F400842025260F304F
:1011A000F40035257608F3008A15F31FDA288A1132
:1011B0004A2519258A11D924B4228B170B17080048
:1011C0008A112A21D030F600A920F601A920FA20A0
:1011D0002A21D130F600A920F601F5217908B500C1
:1011E000F601F5217908B600F601F5217908B70076
:1011F000F601F5217908B800F601F5217908B90062
:10120000F601F5217908BA000130F600F5217908D8
:10121000BB00FA200800A1204E08003C8A150318E4
:101220000C294E1DC429D108031D5229E020350880
:10123000293A8A15031920293508593A031D252909
:1012400088208A1502208A153029B50803192C290F
:101250003508303A031D302988208A150B20552582
:10126000B5088A15031D52293808073A031D52296B
:101270003908243C031852293703031D46293A082C
:10128000033A031D4629B70A8A1119253708023A7D
:101290008A15031D52293A08103A031D5229B70333
:1012A0008A111925D3088A15031DBB29570855062D
:1012B000031D5E295608540603196E295508370682
:1012C000031D662954083606031987145708370684
:1012D000031D6E2956083606031987105B08590648
:1012E000031D76295A085806031986295908370616
:1012F000031D7E2958083606031907155B083706B3
:10130000031D86295A083606031907115F085D0672
:10131000031D8E295E085C0603199E295D083706A9
:10132000031D96295C083606031907155F08370662
:10133000031D9E295E083606031907116108600621
:101340000319AA2960084C02031885144C0861028D
:10135000031885104F188514630862060319B8290D
:101360004C0862020318051463084C0203180510A8
:10137000CD08031D0514D308031DC329D108031D7F
:10138000C3298A11B4224E118A15CE1C0C29BE0A1B
:101390003E08093C0318D629C80ABE01D108031D1E
:1013A000D429D3080319D6298A11B4228A11DF2738
:1013B000F3016D086C068A150319E1290130F30069
:1013C000EB29EC080319EB29BF0A3F08043C03187A
:1013D000EB290130F300F3080319F4291A208A11CC
:1013E000B4226C08ED00BF01CE108A150C298312BF
:1013F0000313B501B601B7010130B8000130B900DF
:101400000130BA002330BB000030BC000130BD0009
:10141000BE01BF01C8010830C9000130CA00463012
:10142000CB00B301B401CC01CD01CE014F10CF10E0
:10143000D001D101D201D301D401D501D601D70108
:10144000D801D901DA01DB01DC01DD01DE01DF01B8
:101450002830E0002730E1002430E2002530E300AE
:101460000830E4000230E5008030E6000730E70095
:101470004030E8004230E900C030EA008830EB003C
:10148000A001A101A201A301A401A501A601A70138
:10149000A801A901AA01AB01AC01AD01AE01AF01E8
:1014A000EC01ED01EE010830EF000130F000F10138
:1014B000F2018A150A120B290B1D642A3D30831292
:1014C00003138100CE140B11831203130C1C6D2A1D
:1014D000FF308F008E000C104E15320E8400310E3E
:0C14E0008A00300E8300FF0E7F0E090012
:02400E00B13FC0
:00000001FF
