:02000000E12FEE
:08000800FF00030E8312031335
:10001000B0000A0EB100040EB2008A150A1243287D
:100020000330F207F20CF20C7F30F2050000F20B05
:10003000162808000000000000000000000000007A
:100040000000F20B1A2808007408F700F6010310EC
:10005000F70DF60DF70DF60DF7070318F60AF7077B
:100060000318F60A3D30F7070318F60A0030760742
:100070008A007508F6007708820000308A00003098
:10008000F70053304C2800308A000030F7005F3012
:100090004C280030F7007730F6070318F70A770886
:1000A0008A007608820031342834313430343134D7
:1000B0003034313431343034313430343134043448
:1000C000083412341634203424342834323436348C
:1000D00040344434483452345634603464346834E0
:1000E00072347634803484348834923496343F3495
:1000F00006345B344F3466346D347D3407347F34DA
:100100006F34EC08031D85280800F930FF3E031DFD
:1001100086280000EC0B85280800C611C511C01305
:100120006F08C4008711071242118030F000F008F8
:100130000319BA2870086F050319A128831607163A
:10014000A328831607120A308312F20010208316A8
:10015000871583128719AE286400A9280A30F20097
:100160001020831687110A308312F200102003102A
:10017000F00C9728C5154116C112831607160A30D0
:100180008312F20010208316871583128719CA285C
:100190006400C5280A30F20010207110071A71148B
:1001A0000A30F200102083168711831241120A30A0
:1001B000F2001020F2017118F20A080083120313F2
:1001C000C611C51141150A30F2001020871107121F
:1001D0008316871107120A308312F200102083164B
:1001E000871583128719F6286400F1280A30F20077
:1001F0001020831607160A308312F2001020071E03
:10020000032987190729C615C21141110800421692
:1002100041114110C110C111411208000A3083126E
:100220000313F2001020C611C5114114831687155F
:100230000716831287110712871D3B29071E3B29CA
:100240000A30F200102087192929C615C21541105D
:1002500008000712831607120A308312F2001020DA
:100260008711831687110A308312F2001020C215FD
:100270004110C5150800C615C2154110C110411125
:10028000C11141120800F101083071020318080081
:1002900001307005F20072188614721C8610061167
:1002A000F0080310F00C0615F10A44290130F000A3
:1002B000F1010830710203180800831687128312B7
:1002C000871270086F050319672983168716053092
:1002D0008312F2001A208316871603108312F00D82
:1002E000F10A5929C611C511C013C1156F18C116DD
:1002F0006F1CC112421587110712831607160A30A8
:100300008312F2001020F1018030F000F008031990
:10031000A3298316871583128719902964008B29D6
:100320000A30F2001020831607168312071E9A293E
:100330007008F104831687110A308312F20010202E
:100340000310F00C8629C515C111EF080319AB295C
:1003500083160716AD29831607120A308312F2009E
:1003600010208316871583128719B8296400B329D2
:10037000C5110A30F2001020831687118312C515AB
:100380000A30F20010207108F20008000E21D0306F
:10039000EF008D206D08EF008D206E08EF008D209E
:1003A000DE200800F201E70A6708F300670373061E
:1003B000031DF5295E08F4000F307105F5002420B7
:1003C000F200680873068A110A12031DE9295F0802
:1003D000F2078313203084007308840772088000BA
:1003E000F10E0F30F105F303D629E70A080069037F
:1003F000031D0D2A6F086E06031D012A7008EE000A
:100400001E2A0F306E05F1007108093A031D0B2AF0
:100410001030EE071E2AEE0A1E2A70086E06031D13
:10042000142A6F08EE001E2A0F306E05F100F10845
:10043000031D1D2A1030EE021E2AEE036E08F10085
:100440000800831203134F084E04ED0050086D049A
:100450000319352B4F03031D3B2A0330C800E70166
:100460000130E8002030F100D2210330E8003B08E1
:10047000F100D221472B4F08043A031D512A0330C3
:10048000C8005E30A0005F30A1006E30A2005E08A0
:10049000F4003808F50024205F07A3008A110A122F
:1004A000472BD00803190D2B0530E8005008013AFE
:1004B00003197C2A033A03198F2A013A0319972A50
:1004C000073A0319A42A013A0319AC2A033A03197B
:1004D000BB2A013A0319C32A0F3A0319D02A013A59
:1004E0000319D62A033A0319E92A013A0319F12A12
:1004F000073A0319052B472B3830A0003030A100F4
:100500003F30A2005430A3000530C8000430E7009B
:100510005208F100D2215108F100D221472B0730B7
:10052000C8000630E7005108F100D221472B713096
:10053000A3000530C8000430E7005408F100D221C0
:100540005308F100D221472B0730C8000630E700DE
:100550005308F100D221472B7C30A0005430A30077
:100560000530C8000430E7005608F100D2215508D4
:10057000F100D221472B0730C8000630E7005508AC
:10058000F100D221472B7130A3000530C8000430A0
:10059000E7005808F100D2215708F100D221472B7B
:1005A0000730C8005708F100D221472B3830A0008F
:1005B0003030A1005430A200A3013F30A4005430D9
:1005C000A5000730C8000630E7005908F100D22125
:1005D000472B7130A5000630E7005A08F100D22100
:1005E000472B3830A0007B30A1003030A20078309B
:1005F000A3003F30A4005430A5000730C8000630E7
:10060000E7005B08F100D221472B7130A5000630CE
:10061000E7005C08F100D221472B4F08023A03198A
:100620001B2B013A03191E2B063A0319212B033AFF
:100630000319242B272B0330C800292B0130C800B5
:10064000292B0530C800292B0730C800292B08307A
:10065000C800E7010130E8003908F100D221033079
:10066000E8003A08F100D221472B0130E800E70109
:100670003308F100D2213408F100D22120083F3A9A
:100680000319A001CB080319472B4030A000D00864
:10069000031D542B0430E7000530E8003708F10053
:1006A000D2213608F100D2214F0AEE000230F000CC
:1006B000083070020318712B6E087006031D682B3A
:1006C00083132830840070088407013080006F2B6A
:1006D0008313283084007008840700308000F00AFB
:1006E000582BA8010518A80AA9018518A90A86117E
:1006F0006108F0004321861586116308F00043214C
:10070000EF015D086F020318A02B3F1C8E2B4808D9
:100710006F06031D8E2BF0014321962B831320308F
:1007200084006F0884070008F000432183132830F9
:1007300084006F0884070008F0004321EF0A812B32
:10074000861508008312031386118830F0004321B8
:10075000861508006D08EF0056216E08EF0056213F
:10076000080083120313ED01EE0108306E02031836
:10077000CC2B8316871283128712831687160630B6
:100780008312F20010200310ED0C871AED170630CB
:10079000F2001A20EE0AB52B6D08EE000800831651
:1007A000071687158312C0016D08C3000830C0000A
:1007B000C101C201C217C511C61107128711C016A7
:1007C000DE2008000E21D030EF008D20EF018D20BB
:1007D000EF018D203608EF008D203708EF008D20C7
:1007E0003808EF008D203908EF008D203A08EF001F
:1007F0008D203B08EF008D20DE2008000E21D03038
:10080000EF008D206D08EF008D20DE200E21D1300D
:10081000EF008D200130EF0072217208EE00DE2023
:100820006E08EF0008000E3083120313ED00EE0196
:10083000C6210F30ED00EE01C62108000E21AE30BA
:10084000EF008D20EF018D20EF018D204430EF006F
:100850008D205108EF008D205208EF008D205308A5
:10086000EF008D205408EF008D205508EF008D20FB
:100870005608EF008D205708EF008D205808EF0034
:100880008D205908EF008D205A08EF008D205B085D
:10089000EF008D205C08EF008D20DE200A30EC0098
:1008A000812008000E21AE30EF008D20EF018D2059
:1008B000EF018D20DE200E21AF30EF008D20EF0103
:1008C00072217208ED006D08443A03196B2C013057
:1008D000EF0072219C2CEF0172217208D100EF0110
:1008E00072217208D200EF0172217208D300EF0169
:1008F00072217208D400EF0172217208D500EF0155
:1009000072217208D600EF0172217208D700EF0140
:1009100072217208D800EF0172217208D900EF012C
:1009200072217208DA00EF0172217208DB000130D7
:10093000EF0072217208DC00DE200800831203132E
:100940005008013A0319C62C033A0319CF2C013A77
:100950000319D82C073A0319E12C013A0319EA2CA0
:10096000033A0319F32C013A0319FC2C0F3A03192B
:10097000052D013A03190E2D033A0319182D013ADA
:100980000319222D073A03192C2D08005208EE00F6
:100990002330EF00F001F7217108D2000800510860
:1009A000EE005930EF00F001F7217108D100080086
:1009B0005408EE002330EF00F001F7217108D40055
:1009C00008005308EE005930EF00F001F7217108DC
:1009D000D30008005608EE002330EF00F001F721A5
:1009E0007108D60008005508EE005930EF00F001FC
:1009F000F7217108D50008005808EE002330EF00F9
:100A0000F001F7217108D80008005708EE005930AE
:100A1000EF00F001F7217108D70008005908EE0037
:100A20004030EF002030F000F7217108D9000800B5
:100A30005A08EE005A08EF002030F000F721710844
:100A4000DA0008005B08EE004030EF002030F000D4
:100A5000F7217108DB0008005C08EE004030EF0071
:100A60005B08F000F7217108DC0008008312031313
:100A70004F08013A03194C2D033A0319552D013A39
:100A800003195F2D073A0319962D013A03199F2D7B
:100A9000033A0319A72D08003B08EE009930EF0038
:100AA000F001F7217108BB0008003A08EE0012308F
:100AB000EF000130F000F7217108BA0008003A0891
:100AC000EC00F0306C0503196A2D3A0E0F39EE0078
:100AD0006E08EC07EC033C08F4006C08F5002420D9
:100AE000ED006C038A110A12031D8C2DEE011830E3
:100AF0006E0203188C2D3D08F4006E08F5002420CA
:100B0000EF003B086F068A110A12031D8A2D293057
:100B1000ED008C2DEE0A772D3908EE006D08EF0000
:100B20000130F000F7217108B90008003808EE0024
:100B30000730EF000130F000F7217108B8003708E6
:100B4000EE002330EF00F001F7217108B7003608FE
:100B5000EE005930EF00F001F7217108B6000800EF
:100B6000FA01FD01FE017608FB007708FC00F91F81
:100B7000BF2DFA17F809F909F80A0319F90A7A1AC0
:100B8000D12D781CC92D7B08FD077C0803187C0F2C
:100B9000FE070310F90CF80C0310FB0DFC0DFA0A0C
:100BA000BF2DFA1F0800FD09FE09FD0A0319FE0A00
:100BB00008008312031386116208F0004321831694
:100BC000861420308312EC00ED0120306D020318F2
:100BD000F62DEC0306110130F2001020861CF32DD7
:100BE000EC080310EC0D0615ED0AE52D83168610B2
:100BF000831286156C08E5000800CC3083120313BD
:100C0000ED004430EE00AA230800CC308312031319
:100C1000ED00BE30EE00AA23B1236E08CA00B12356
:100C20006E08C9000800831203136508013A03190E
:100C30002F2E033A0319372E013A03193F2E073A94
:100C40000319472E013A03194D2E033A0319552E65
:100C5000013A03195F2E0F3A03196A2E0800EC01BE
:100C6000871CEC0A6C1887146C1C87100800EC01B8
:100C7000071DEC0A6C1807156C1C07110800EC0125
:100C8000851CEC0A6C1885146C1C85100800CE0AB3
:100C90004E08023C031CCE010800CF0A4F08063C58
:100CA00003180800E223CF010800E901CF08031967
:100CB0005B2E36250800D008031D9E240800013055
:100CC000E900CF080319662E36250800D008031D59
:100CD0009E240800D00A50080C3C03180800D001DC
:100CE0001E2408008316031387168312ED01871252
:100CF0008316871232308312F2001A208316871669
:100D000007308312F2001A20871AEA013230F2000B
:100D10001A200800831603138501831285018316A8
:100D200086010E308312860021308316870038300A
:100D30008312870083168101811707309F000115F8
:100D4000811401143D30831281000B118B16073082
:100D50009000FF308F008E0083160C148312CC019C
:100D60008B170B170130ED00CF2352240F30ED000D
:100D7000FE236F08EC00EC1FBF2E1324E223A223F6
:100D8000212208000E21D030EF008D20EF018D20B0
:100D9000DE200E21D130EF008D20EF01722172088C
:100DA000B500EF0172217208B600EF0172217208DE
:100DB000B700EF0172217208B800EF0172217208CA
:100DC000B900EF0172217208BA000130EF00722100
:100DD0007208BB00DE20080083120313ED014908EE
:100DE000EE004A08ED04CB01EE1BCB0ACB08031939
:100DF000FE2EED09EE09ED0A0319EE0A0630F600A3
:100E0000F7016D08F8006E08F900B0257D08EF00C5
:100E10007E08F2006D08F1006E08F0006E0DF00C17
:100E2000F10C6E0DF00CF10C7108EF07720803184D
:100E3000F00AF007B301B401F3018030F400F501CA
:100E400010307502031808000310B30DB40D7308B9
:100E50006F05031D2F2F740870050319322FB30A75
:100E60000319B40A0F303305F600F7017608043C85
:100E700077080318031DF71B412F0330B30703182E
:100E8000B40AF0303305F800F9017808493C7908D4
:100E90000318031DF91B502F3030B3070318B40A91
:100EA00000303305FA0034080F39FB007B08043C9E
:100EB000031D5C2F7A08993C0318622FFB1B622FDD
:100EC0000330B40700303305FC003408F039FD006E
:100ED0007D08493C031D6E2F7C08993C0318742F34
:100EE000FD1B742F3030B407740DF40CF30CF50AAD
:100EF000202F8A264C08003C0318D52F4C1DCD2FDF
:100F0000CF08031D992FC2263508293A03198C2FC3
:100F10003508593A031D8F2F7226FD25992FB508E4
:100F20000319962F3508303A031D992F722605268E
:100F3000EC2652083706031DA12F51083606031967
:100F4000871454083706031DA92F530836060319C2
:100F5000871056083706031DB12F550836060319AA
:100F6000071558083706031DB92F57083606031909
:100F700007113408EC0059086C06031985145A0847
:100F80006C06031985105B086C06031905145C08D0
:100F90006C060319051021224C11CC1C7A2F4F0826
:100FA000003C031C2122CC107A2FD9256608650647
:100FB00003197A2FE5080319DE2F13266508E600CA
:100FC0007A2F83120313B501B601B7010130B800BF
:100FD0000130B9000130BA002330BB000030BC0042
:100FE0000130BD00BE01BF010830C8000130C9009A
:100FF0004630CA00B3012030B400CB01CC014D1003
:10100000CD104D11CD114D12CE01CF01D001D10126
:10101000D201D301D401D501D601D701D80128309E
:10102000D9002730DA002430DB002530DC0008301E
:10103000DD000230DE008030DF000730E0004030AD
:10104000E1004230E200C030E3008830E400A0015B
:10105000A101A201A301A401A501A601A701A80164
:10106000A901AA01AB01AC01AD01AE01AF01E501DF
:10107000E601E7010830E8000130E900EA01EB0190
:101080008A110A12792F0B1D522883120313BE0AEC
:101090003E08093C03184F28BF0ABE01CC143D305E
:1010A00081000B11831203130C1C5B28FF308F008F
:1010B0008E000C104C15320E8400310E8A00300E5A
:0810C0008300FF0E7F0E090002
:02400E00B13FC0
:00000001FF
