:020000007A2F55
:08000800FF00030E8312031335
:10001000B0000A0EB100040EB2008A110A12D82FE5
:100020000330F007F00CF00C7F30F0050000F00B0F
:10003000162808000000000000000000000000007A
:100040000000F10B1A2808007308F600F5010310F0
:10005000F60DF50DF60DF50D3730F6070318F50A18
:10006000003075078A007408F500760882000030B9
:10007000F600493042280030F60055304228003062
:10008000F6006D30F5070318F60A76088A00750841
:100090008200313428343134303431343034313426
:1000A000313430343134303431340434083412349F
:1000B0001634203424342834323436344034443432
:1000C000483452345634603464346834723476348C
:1000D000803484348834923496343F3406345B342C
:1000E0004F3466346D347D3407347F346F34C61139
:1000F000C511C0136D08C40005118511421180306F
:10010000EE00EE080319A2286E086D0503198B286E
:10011000831685158D28831685110A30F00010206E
:100120000515831205199628640091280A30F000FD
:100130001020831605110A30F000102003108312DE
:10014000EE0C8128C5154116C112831685150A309B
:10015000F0001020051583120519B0286400AB28A3
:100160000A30F00010206F1085196F140A30F0006B
:10017000102083160511831241120A30F00010205E
:10018000F0016F18F00A080083120313C611C5119D
:1001900041150A30F0001020051185118316051154
:1001A00085110A30F0001020051583120519DA2890
:1001B0006400D5280A30F0001020831685150A3017
:1001C000F00010208312851DE7280519EB28C615BD
:1001D000C21141110800421641114110C110C11154
:1001E000411208000A30F000102083120313C611D8
:1001F000C511411483160515851583120511851146
:10020000051D1F29851D1F290A30F0001020051922
:100210000D29C615C21541100800851183168511D8
:100220000A30F000102083120511831605110A30E0
:10023000F00010208312C2154110C5150800C61524
:10024000C2154110C1104111C11141120800013005
:10025000EF00F00108307002031808008316051340
:10026000831205136F086E050319382983160517C5
:100270000530F1001A208316051703108312EF0DC5
:10028000F00A2A296B0883169B001C141A08831293
:10029000EC000800F220D030ED0077206B08ED0074
:1002A00077206C08ED007720C42008006803031D48
:1002B0006C296E086D06031D60296F08ED007D290D
:1002C0000F306D05F0007008093A031D6A291030DF
:1002D000ED077D29ED0A7D296F086D06031D732941
:1002E0006E08ED007D290F306D05F000F008031D4C
:1002F0007C291030ED027D29ED036D08F000080027
:10030000F001083070020318080001306F05F10099
:1003100071188514711C85100510EF080310EF0C7F
:100320000514F00A81296C08EE0027216D08EE0003
:100330002721080083120313EC01ED0108306D0240
:100340000318B529831605138312051383160517A1
:100350000630F000102003108312EC0C051BEC1784
:100360000630F1001A20ED0A9E296C08ED00080005
:10037000C611C511C013C1156C18C1166C1CC11271
:10038000421505118511831685150A30F0001020DD
:100390008312EE018030ED00ED080319E929831680
:1003A000051583120519D6296400D1290A30F000F9
:1003B0001020831685158312851DE0296D08EE0433
:1003C000831605110A30F000102003108312ED0C83
:1003D000CC29C515C111EC080319F129831685151F
:1003E000F329831685110A30F000102005158312B9
:1003F0000519FC296400F729C5110A30F000102006
:10040000831605118312C5150A30F00010206E08FE
:10041000EF0008008316851505158312C0016B08CF
:10042000C3000830C000C101C201C217C511C61106
:1004300085110511C016C420080083120313EB01B7
:1004400042216C080A3A031D08000130EB004221EA
:100450006C08D1000230EB0042216C08D20003305E
:10046000EB0042216C08D3000430EB0042216C0801
:10047000D4000530EB0042216C08D5000630EB00BB
:1004800042216C08D6000730EB0042216C08D700EF
:100490000830EB0042216C08D8000930EB00422103
:1004A0006C08D9000A30EB0042216C08DA000B30EE
:1004B000EB0042216C08DB000C30EB0042216C08A1
:1004C000DC000800F220D030ED007720ED0177202D
:1004D000ED0177203608ED0077203708ED00772012
:1004E0003808ED0077203908ED0077203A08ED0054
:1004F00077203B08ED007720C42008000F308312DE
:100500000313EB00EC014A2108000E3083120313A1
:10051000EB008030EC004A210F30EB008030EC0023
:100520004A210800F401F501F6018030F700F801D6
:10053000103078020318F32A0310F40DF50D760835
:100540007205031DA72A770873050319AA2AF40A5E
:100550000319F50A0F307405F900FA017908043C13
:100560007A080318031DFA1BB92A0330F40703188D
:10057000F50AF0307405FB00FC017B08493C7C085F
:100580000318031DFC1BC82A3030F4070318F50AB2
:1005900000307405FD0075080F39FE007E08043C2C
:1005A000031DD42A7D08993C0318DA2AFE1BDA2A97
:1005B0000330F5070030740583160313A000750897
:1005C000F039A1002108493C031DE82A2008993C84
:1005D0000318EE2AA11BEE2A3030F507770DF70C31
:1005E000F60CF80A982A7408F8007508F900080053
:1005F000F10183120313E60A6608F200660372062D
:10060000031D1D2B5E08F3000F307005F40024203D
:10061000F100670872068A110A12031D112B5F0888
:10062000F10783132030840072088407710880006A
:10063000F00E0F30F005F203FE2AE60A08008312DE
:1006400003135008013A0319472B033A0319502B9F
:10065000013A0319592B073A0319622B013A03197E
:100660006B2B033A0319742B013A03197D2B0F3AB4
:100670000319862B013A03198F2B033A0319992B7F
:10068000013A0319A32B073A0319AD2B08005208AE
:10069000ED002330EE00EF0156217008D200080073
:1006A0005108ED005930EE00EF0156217008D100DD
:1006B00008005408ED002330EE00EF0156217008C9
:1006C000D40008005308ED005930EE00EF01562128
:1006D0007008D30008005608ED002330EE00EF014B
:1006E00056217008D60008005508ED005930EE007C
:1006F000EF0156217008D50008005808ED0023309E
:10070000EE00EF0156217008D80008005708ED00F0
:100710005930EE00EF0156217008D7000800590843
:10072000ED004030EE002030EF0056217008D90077
:1007300008005A08ED005A08EE002030EF0056215C
:100740007008DA0008005B08ED004030EE00203051
:10075000EF0056217008DB0008005C08ED00403017
:10076000EE005B08EF0056217008DC0008008312E1
:1007700003134F08013A0319CD2B033A0319D62B63
:10078000013A0319E02B073A0319172C013A031910
:10079000202C033A0319282C08003B08ED0099305F
:1007A000EE00EF0156217008BB0008003A08ED008A
:1007B0001230EE000130EF0056217008BA00080038
:1007C0003A08EB00F0306B050319EB2B3A0E0F39AA
:1007D000ED006D08EB07EB033C08F3006B08F40039
:1007E0002420EC006B038A110A12031D0D2CED016D
:1007F00018306D0203180D2C3D08F3006D08F4004D
:100800002420EE003B086E068A110A12031D0B2CF1
:100810002930EC000D2CED0AF82B3908ED006C089E
:10082000EE000130EF0056217008B90008003808CA
:10083000ED000730EE000130EF0056217008B800DF
:100840003708ED002330EE00EF0156217008B700A5
:100850003608ED005930EE00EF0156217008B60061
:100860000800F601F901FA017208F7007308F800B0
:10087000F51F402CF617F409F509F40A0319F50AD7
:10088000761A522C741C4A2C7708F907780803183A
:10089000780FFA070310F50CF40C0310F70DF80DA0
:1008A000F60A402CF61F0800F909FA09F90A03199B
:1008B000FA0A0800831203134F084E04EC00500894
:1008C0006C0403196E2D4F03031D742C0330C800F4
:1008D000E6010130E7002030F000F8220330E700A5
:1008E0003B08F000F822802D4F08043A031D8A2CA3
:1008F0000330C8005E30A0005F30A1006E30A2005F
:100900005E08F3003808F40024205F07A3008A1172
:100910000A12802DD0080319462D0530E700500833
:10092000013A0319B52C033A0319C82C013A0319EB
:10093000D02C073A0319DD2C013A0319E52C033AB0
:100940000319F42C013A0319FC2C0F3A0319092D51
:10095000013A03190F2D033A0319222D013A031905
:100960002A2D073A03193E2D802D3830A000303053
:10097000A1003F30A2005430A3000530C80004306D
:10098000E6005208F000F8225108F000F822802D0D
:100990000730C8000630E6005108F000F822802D2C
:1009A0007130A3000530C8000430E6005408F000A0
:1009B000F8225308F000F822802D0730C8000630D6
:1009C000E6005308F000F822802D7C30A00054305F
:1009D000A3000530C8000430E6005608F000F822F5
:1009E0005508F000F822802D0730C8000630E600D8
:1009F0005508F000F822802D7130A3000530C800A2
:100A00000430E6005808F000F8225708F000F822F9
:100A1000802D0730C8005708F000F822802D3830AC
:100A2000A0003030A1005430A200A3013F30A40048
:100A30005430A5000730C8000630E6005908F00021
:100A4000F822802D7130A5000630E6005A08F0002B
:100A5000F822802D3830A0007B30A1003030A20079
:100A60007830A3003F30A4005430A5000730C80000
:100A70000630E6005B08F000F822802D7130A500FA
:100A80000630E6005C08F000F822802D4F08023A9C
:100A90000319542D013A0319572D063A03195A2DFB
:100AA000033A03195D2D602D0330C800622D01301B
:100AB000C800622D0530C800622D0730C800622DC5
:100AC0000830C800E6010130E7003908F000F822DC
:100AD0000330E7003A08F000F822802D0130E700EB
:100AE000E6013308F000F8223408F000F82220086C
:100AF0003F3A0319A001CB080319802D4030A00014
:100B0000D008031D8D2D0430E6000530E7003708BE
:100B1000F000F8223608F000F82202304F07ED000E
:100B20000230EF0008306F020318AB2D6D086F061E
:100B3000031DA22D8313283084006F088407013021
:100B40008000A92D8313283084006F0884070030AB
:100B50008000EF0A922DA8010619A80AA90186199A
:100B6000A90A85136108EF008021851785136308A2
:100B7000EF008021EE015D086E020318DA2D3F1CA4
:100B8000C82D48086E06031DC82DEF018021D02D09
:100B90008313203084006E0884070008EF00802152
:100BA0008313283084006E0884070008EF0080213A
:100BB000EE0ABB2D85170800831203138513620804
:100BC000EF0080218316851420308312EB00EC01A6
:100BD00020306C020318F92DEB0305100130F000F2
:100BE0001020851CF62DEB080310EB0D0514EC0A04
:100BF000E82D83168510831285176B08E500080021
:100C0000CC3083120313EC004430ED009321080034
:100C1000CC3083120313EC00BE30ED0093219A21F7
:100C20006D08CA009A216D08C900080083120313D9
:100C30006508013A0319322E033A03193A2E013A94
:100C40000319422E073A03194A2E013A0319502E6E
:100C5000033A0319582E013A0319622E0F3A031969
:100C60006D2E0800EB01861EEB0A6B1886166B1CB6
:100C700086120800EB01061EEB0A6B1806166B1CA9
:100C800006120800EB01861DEB0A6B1886156B1C1B
:100C900086110800CE0A4E08023C031CCE01080053
:100CA000CF0A4F08063C031808006222CF01080053
:100CB000E801CF0803195E2EB7230800D008031DF2
:100CC0001F2308000130E800CF080319692EB7235D
:100CD0000800D008031D1F230800D00A50080C3C50
:100CE000031CD00108008316031305178312EC01BF
:100CF0000513831605133230F1001A20051707304B
:100D0000F1001A208312051BE9013230F1001A208C
:100D10000800831603138E150C308500831285019D
:100D2000831686018312860183168101811707309D
:100D300083129F0006309000FF308F008E008316D4
:100D40000C1478308312920412159214C330831657
:100D500092008312CC018B170B171D220130EB0080
:100D60000A22852262227E220800F220D030ED0085
:100D70007720ED017720C420F220D130ED007720DC
:100D8000EC01B8216F08B500EC01B8216F08B6007E
:100D9000EC01B8216F08B700EC01B8216F08B8006A
:100DA000EC01B8216F08B900EC01B8216F08BA0056
:100DB0000130EC00B8216F08BB00C420080083128A
:100DC0000313EC014908ED004A08EC04CB01ED1BCC
:100DD000CB0ACB080319F12EEC09ED09EC0A031933
:100DE000ED0A0630F200F3016C08F4006D08F5001E
:100DF00031247908EE007A08F1006C08F0006D08E3
:100E0000EF006D0DEF0CF00C6D0DEF0CF00C700899
:100E1000EE0771080318EF0AEF076E08F2006F087B
:100E2000F3009222780883120313B3007908B40008
:100E3000080089265A244C08003C03181B2F4C1D1F
:100E40006E2FCF08031D3A2FB5263508293A03190E
:100E50002D2F3508593A031D302F732600263A2FBF
:100E6000B5080319372F3508303A031D3A2F73267A
:100E70000826DF2652083706031D422F5108360682
:100E80000319861654083706031D4A2F53083606E1
:100E90000319861256083706031D522F55083606C9
:100EA0000319061658083706031D5A2F5708360629
:100EB000031906123408EB0059086B06031986154E
:100EC0005A086B06031986115B086B060319061591
:100ED0005C086B06031906115A244C11CC1E752FA1
:100EE0004F08003C031C5A24CC12DC25E508031DE6
:100EF00016261B2F83120313B501B601B70101306B
:100F0000B8000130B9000130BA002330BB00003016
:100F1000BC000130BD00BE01BF010830C800C901DE
:100F2000CA01B301B401CB01CC014D10CD104D115C
:100F3000CD114D12CE01CF01D001D101D201D3018B
:100F4000D401D501D601D701D8012830D9002730E6
:100F5000DA002430DB002530DC000830DD00023010
:100F6000DE008030DF000730E0004030E10042303A
:100F7000E200C030E3008830E400A001A101A2013A
:100F8000A301A401A501A601A701A801A901AA0125
:100F9000AB01AC01AD01AE01AF01E501E6010830E6
:100FA000E7000130E800E901EA018A110A12192F6D
:100FB000831203130C1CE12FFF308F008E000C10E6
:100FC0004C158C1CEC2FBE0A3E08093C0318EB2F75
:100FD000BF0ABE01CC168C10320E8400310E8A007E
:0A0FE000300E8300FF0E7F0E0900A3
:02400E00183F59
:00000001FF
