:040000008A15A5298F
:08000800FF00030E8312031335
:10001000B0000A0EB100040EB2008A150A120C2AB2
:100020000330F807F80CF80C7F30F8050000F80BE7
:10003000162808007B08FE00FD010310FE0DFD0DD3
:10004000FE0DFD0DFE070318FD0AFE070318FD0A4D
:100050003330FE070318FD0A00307D078A007C0854
:10006000FD007E08820000308A000030FE0049302A
:10007000422800308A000030FE005530422800300F
:10008000FE006D30FD070318FE0A7E088A007D0819
:100090008200313428343134303431343034313426
:1000A000313430343134303431340434083412349F
:1000B0001634203424342834323436344034443432
:1000C000483452345634603464346834723476348C
:1000D000803484348834923496343F3406345B342C
:1000E0004F3466346D347D3407347F346F34000010
:1000F000000000000000000000000000F70B77285F
:100100000800F208031D85280800F930FF3E031D92
:1001100086280000F20B852808006408FB000F30D9
:100120007905FC001A20FA006E086D068A110A1281
:10013000031D9C286508FA048313203084006D0891
:1001400084077A088000ED0A0800C611C511C013A3
:100150007508C4008711071242118030F600F608B6
:100160000319D228760875050319B92883160716CE
:10017000BB28831607120A308312F800102083165A
:10018000871583128719C6286400C1280A30F80031
:100190001020831687110A308312F80010200310F4
:1001A000F60CAF28C5154116C112831607160A3082
:1001B0008312F80010208316871583128719E2280E
:1001C0006400DD280A30F80010207710071A771431
:1001D0000A30F800102083168711831241120A306A
:1001E000F8001020F8017718F80A080083120313AA
:1001F000C611C51141150A30F800102087110712E9
:100200008316871107120A308312F8001020831614
:100210008715831287190E29640009290A30F8000E
:100220001020831607160A308312F8001020071ECC
:100230001B2987191F29C615C21141110800421632
:1002400041114110C110C111411208000A3083123E
:100250000313F8001020C611C51141148316871529
:100260000716831287110712871D5329071E53296A
:100270000A30F800102087194129C615C21541100F
:1002800008000712831607120A308312F8001020A4
:100290008711831687110A308312F8001020C215C7
:1002A0004110C5150800C615C2154110C1104111F5
:1002B000C11141120800F701083077020318080045
:1002C00001307605F80078188614781C861006111F
:1002D000F6080310F60C0615F70A5C290130F50044
:1002E000F60108307602031808008316871283127D
:1002F00087127508740503197F2983168716053040
:100300008312F70077208316871603108312F50DEA
:10031000F60A7129FC01FD01FC01FD0103307B029D
:10032000031D9429E8307A02031CA129FB1BA12993
:10033000E830FA020330031CFB03FB021030FD0718
:100340008E297B08803AFE0080307E02031DAA2998
:1003500064307A02031CB2296430FA02031CFB03E6
:10036000FD0AA1297B08803AFE0080307E02031D31
:10037000BB290A307A02031CC6290A30FA02031C80
:10038000FB031030FC070318FD0AB2297A08FC07AA
:100390007B080318FD0AFD070800C611C511C0132C
:1003A000C1157518C116751CC112421587110712A7
:1003B000831607160A308312F8001020F7018030E8
:1003C000F600F6080319FE2983168715831287198C
:1003D000EB296400E6290A30F8001020831607167E
:1003E0008312071EF5297608F704831687110A3051
:1003F0008312F80010200310F60CE129C515C11175
:10040000F5080319062A83160716082A8316071209
:100410000A308312F800102083168715831287197B
:10042000132A64000E2AC5110A30F8001020831622
:1004300087118312C5150A30F80010207708F800DC
:1004400008002621D030F500A5207308F500A5206E
:100450007408F500A520F6200800780E0F39F90081
:100460008D207808F9008D2008006F03031D4B2AAA
:1004700075087406031D3F2A7608F4005C2A0F30C5
:100480007405F7007708093A031D492A0730F40775
:100490005C2AF40A5C2A76087406031D522A750841
:1004A000F4005C2A0F307405F700F708031D5B2A7F
:1004B0000730F4025C2AF4037408F7000800FE0118
:1004C0008316A201A30183127A088316A000831267
:1004D0007B088316A1008312FD1F742AFE17FC09F6
:1004E000FD09FC0A0319FD0A7E1A8A2A7C1C7F2A50
:1004F00083162008A20721080318210FA307031061
:100500008312FD0CFC0C03108316A00DA10D8312A9
:10051000FE0A742AFE1F08008316A209A309A20A74
:100520000319A30A080083120313F30102304F02D8
:100530000319F30A5008F304520873040319FB2B40
:100540005003031DAF2A0330C800ED010330EE0055
:100550002030F8002D223B08F8002D222B2C5008CB
:10056000043A031DC52A0330C8005E30A0005F3086
:10057000A1006E30A2006408FB003808FC001A20BD
:100580006507A3008A110A122B2C5008053A031D97
:10059000DB2A0130C800D1080319D32A0630A00095
:1005A0005B30A100D72A5B30A0006630A100743018
:1005B000A200A3012B2CD2080319D32B0530EE0087
:1005C0005208013A0319122B033A0319242B013A5A
:1005D00003192C2B073A0319392B013A0319412B24
:1005E0000C3A0319412B0F3A0319642B0C3A0319E7
:1005F000642B0D3A0319742B0C3A0319742B033A2C
:1006000003198C2B043A03198C2B013A03199C2BE8
:10061000033A0319AF2B013A0319B72B1F3A0319F9
:10062000CB2B2B2C3830A000A1013F30A20054303E
:10063000A3000530C8000430ED005408F8002D2256
:100640005308F8002D222B2C0730C8000630ED008F
:100650005308F8002D222B2C7130A3000530C80060
:100660000430ED005608F8002D225508F8002D2220
:100670002B2C0730C8000630ED005508F8002D225D
:100680002B2C7C30A0005208053A031D4A2B063063
:10069000A1004C2B5B30A1005430A3000530C800F2
:1006A0000430ED005208053A031D5D2B5808F80090
:1006B0002D225708F8002D222B2C5C08F8002D2243
:1006C0005B08F8002D222B2C0730C8000630ED0007
:1006D0005208053A031D702B5708F8002D222B2CC9
:1006E0005B08F8002D222B2C7130A3000530C800C8
:1006F0000430ED005208053A031D852B5A08F80016
:100700002D225908F8002D222B2C5E08F8002D22EE
:100710005D08F8002D222B2C0730C8000630ED00B4
:100720005208053A031D982B5908F8002D222B2C4E
:100730005D08F8002D222B2C7130A0005F30A10045
:100740005430A200A3013F30A4005430A50007306C
:10075000C8000630ED005F08F8002D222B2C713008
:10076000A5000630ED006008F8002D222B2C763015
:10077000A0007B30A1005F30A2007830A3003F30A2
:10078000A4005430A5000730C8000630ED00610811
:10079000F8002D222B2C7130A5000630ED006208E8
:1007A000F8002D222B2C5008023A0319E12B013AB4
:1007B0000319E42B053A0319E72B013A0319EA2B35
:1007C000ED2B0330C800EF2B0130C800EF2B0530B4
:1007D000C800EF2B0730C800EF2B0830C800ED0130
:1007E0000130EE003908F8002D220330EE003A08FF
:1007F000F8002D222B2C0830C8000130EE004F03EA
:10080000031D042C0230EE00CC080319192CF03023
:1008100034050319192C340DB40CB30C340DB40C7D
:10082000B30C340DB40CB30C340DB40CB30C023057
:10083000EE00ED013408F8002D223308F8002D22D7
:100840006508A30420083F3A0319A001CC08031946
:100850002B2C4030A000D208031D662C0430ED0084
:10086000351C352C0530EE00372C0830EE003708EB
:10087000F700D10803194B2C3708123C03184B2CF6
:100880001230F7020F307705F8007808073C03189C
:100890004B2C0630F702D1080319532CB708031D5F
:1008A000532C1230F7007708F8002D2224083F3A25
:1008B0000319A401D1080319632C3708113C03184C
:1008C000632C0730EE003608F8002D225008F400A3
:1008D0000230F600083076020318832C740876067E
:1008E000031D7A2C83132830840076088407013096
:1008F0008000812C83132830840076088407003020
:100900008000F60A6A2CA8010518A80AA901851812
:10091000A90A86116708F6005B2186158611690809
:10092000F6005B21F501630875020318B22C3F1C29
:10093000A02C48087506031DA02CF6015B21A82CED
:10094000831320308400750884070008F6005B21BB
:10095000831328308400750884070008F6005B21A3
:10096000F50A932C8615080083120313861188302C
:10097000F6005B21861508007208F4006E217308EA
:10098000F4006E21080083120313F201F301083012
:1009900073020318DE2C83168712831287128316C4
:1009A000871603308312F80010200310F20C871A08
:1009B000F2170630F7007720F30AC72C7208F3000D
:1009C00008008316071687158312C0017308C30039
:1009D0000830C000C101C201C217C511C6110712FB
:1009E0008711C016F62008002621D030F500A5207A
:1009F000F501A520F501A5203608F500A52037084A
:100A0000F500A5203808F500A5203908F500A52037
:100A10003A08F500A5203B08F500A520F6200800BF
:100A20002621D030F500A5207308F500A520F6207A
:100A30002621D130F500A5200130F500CD21780820
:100A4000F400F6207408F50008000E30831203133A
:100A5000F300F40121220F30F300F40121220800F9
:100A600083120313F2014908F3004A08F2047208E2
:100A7000F4007308F500CC01F51BCC0ACC0803196F
:100A8000462DF409F509F40A0319F50A0630FA00AF
:100A9000FB017408FC007508FD005F228316220824
:100AA0008312F600831623088312F9007408F800F5
:100AB0007508F700750DF70CF80C750DF70CF80CB0
:100AC0007808F60779080318F70AF7077608FA0096
:100AD0007708FB008A217C08B3007D08B400340845
:100AE000CB004F03031D080004307207FB0073089E
:100AF000FD000318FD0A7D08FA007D0DFA0CFB0CC1
:100B00007D0DFA0CFB0C7D0DFA0CFB0C7208FB073B
:100B10007308FC007A080318FC0AFC074030FB0746
:100B200001300318FC0AFC077B08F4007C08F50080
:100B3000CC01F51BCC0ACC080319A32DF409F50947
:100B4000F40A0319F50A7408FA007508FB008A21F3
:100B50007C08B3007D08B40008002621AE30F50003
:100B6000A520F501A520F501A5204430F500A5201C
:100B70005308F500A5205408F500A5205508F500F8
:100B8000A5205608F500A5205708F500A52058080F
:100B9000F500A5205908F500A5205A08F500A52064
:100BA0005F08F500A5206008F500A5206108F500A4
:100BB000A5206208F500A5205108F500A5205B08D6
:100BC000F500A5205C08F500A5205D08F500A5202E
:100BD0005E08F500A520F6200A30F200812008000A
:100BE0002621AE30F500A520F501A520F501A520B0
:100BF000F6202621AF30F500A520F501CD2178089B
:100C0000F3007308443A0319092E0130F500CD2191
:100C10004E2EF501CD217808D300F501CD217808BD
:100C2000D400F501CD217808D500F501CD21780853
:100C3000D600F501CD217808D700F501CD2178083F
:100C4000D800F501CD217808D900F501CD2178082B
:100C5000DA00F501CD217808DF00F501CD21780813
:100C6000E000F501CD217808E100F501CD217808FB
:100C7000E200F501CD217808D100F501CD217808F9
:100C8000DB00F501CD217808DC00F501CD217808E5
:100C9000DD000130F500CD217808DE00F6200800E7
:100CA000831203135208013A0319842E033A0319DD
:100CB0008D2E013A0319962E073A03199F2E013AF9
:100CC0000319A82E033A0319B12E013A0319BA2EBB
:100CD0000F3A0319C32E013A0319CC2E033A031914
:100CE000D52E013A0319DE2E073A0319E72E013AF1
:100CF0000319F02E033A0319FA2E013A03190A2FA9
:100D00001F3A0319132F08005408F4002330F5008C
:100D1000F60135227708D40008005308F400593052
:100D2000F500F60135227708D30008005608F400D4
:100D30002330F500F60135227708D6000800550863
:100D4000F4005930F500F60135227708D500080087
:100D50005808F4002330F500F60135227708D80052
:100D600008005708F4005930F500F60135227708DD
:100D7000D70008005A08F4002330F500F6013522A8
:100D80007708DA0008005908F4005930F500F60138
:100D900035227708D90008005C08F4002330F500FC
:100DA000F60135227708DC0008005B08F4005930B2
:100DB000F500F60135227708DB0008005E08F40034
:100DC0002330F500F60135227708DE0008005D08C3
:100DD000F4005930F500F60135227708DD000800EF
:100DE0005F08F4004030F5002030F6003522770827
:100DF000DF00080060085F020318002F5F08E000B2
:100E00006008F4005F08F5002030F600352277080E
:100E1000E00008006108F4004030F500F6013522DA
:100E20007708E1000800610862020318192F6108C1
:100E3000E2006208F4004030F5006108F600352257
:100E40007708E2000800831203135008013A0319DF
:100E50003C2F033A0319452F013A03194F2F073A44
:100E60000319862F013A0319902F033A0319962F7D
:100E7000013A03199F2F08003B08F4009930F50050
:100E8000F60135227708BB0008003A08F40012305A
:100E9000F5000130F60035227708BA0008003A085C
:100EA000F200F030720503195A2F3A0E0F39F40090
:100EB0007408F207F2033C08FB007208FC001A20D9
:100EC000F30072038A110A12031D7C2FF4011830FB
:100ED000740203187C2F3D08FB007408FC001A20E4
:100EE000F5003B0875068A110A12031D7A2F293076
:100EF000F3007C2FF40A672F3908F4007308F5001B
:100F00000130F60035227708B90008003808F400EF
:100F10000730F5000130F60035227708B8000800E8
:100F2000D10A5108023C031CD10108003708F40023
:100F30002330F500F60135227708B700080036089F
:100F4000F4005930F500F60135227708B6000800A4
:100F50008312031386116808F6005B21831686143A
:100F600020308312F200F301203073020318C42FE3
:100F7000F20306110130F8001020861CC12F031067
:100F8000F20D0615F30AB42F831686108312861508
:100F90007208EB000800CC3083120313F2004430D7
:100FA000F300BC240800CC3083120313F200BE30DF
:100FB000F300BC24C3247308CA00C3247308C90007
:100FC0000800831203136B081F3A0319FE2F083A17
:100FD0008A1503190628183A03190E28083A031926
:100FE00016281C3A03192028083A03192A28183A07
:100FF00003193628083A031943280800F201871C10
:10100000F20A72188714721C87100800F201071D7B
:10101000F20A72180715721C07110800F2014E1D22
:10102000F20A4E117208031D4E150800D001D201BC
:10103000CF0A4F08033C031CCF018A11302508005A
:10104000D201D00A5008073C031808008A11F42482
:10105000D0010800EF01D008031931288A11232795
:101060000800D2088A11031D502608000130EF0045
:10107000D00803193E288A1123270800D2088A11B4
:10108000031D50260800D001D20A52080C3C031858
:101090000800D2018A11AD250800831603138716B4
:1010A0008312F20187128316871232308312F700FF
:1010B0008A1177208316871607308312F70077206E
:1010C000871AF0013230F7007720080083160313E7
:1010D000850183128501831686010E3083128600F6
:1010E00021308316870038308312870083168101F0
:1010F000811707309F000115811401143D308312C0
:1011000081000B118B1607309000FF308F008E008E
:1011100083160C148312CD018B170B170130F300CB
:101120008A11E124F0250F30F30010257508F20034
:101130008A15F21F9E288A112525F4248A11B424C9
:10114000932208008A112621D030F500A520F50150
:10115000A520F6202621D130F500A520F501CD21CE
:101160007808B500F501CD217808B600F501CD214C
:101170007808B700F501CD217808B800F501CD2138
:101180007808B900F501CD217808BA000130F500E2
:10119000CD217808BB00F620080066204D08003CF1
:1011A0008A150318CE284D1D8429D008031D122945
:1011B000A2203508293A8A150319E2283508593A38
:1011C000031DE6284D20CB278A15F028B508031902
:1011D000ED283508303A031DF0284D20D32730255F
:1011E000B5088A15031D12293808073A031D12296C
:1011F0003908243C031812293703031D06293A082D
:10120000033A031D0629B70A8A11F4243708023A63
:101210008A15031D12293A08103A031D1229B70333
:101220008A11F424D2088A15031D7B295608540616
:10123000031D1E295508530603192E295408370685
:10124000031D262953083606031987145608370646
:10125000031D2E2955083606031987105A0858060B
:10126000031D362959085706031946295808370619
:10127000031D3E2957083606031907155A08370675
:10128000031D462959083606031907115E085C0636
:10129000031D4E295D085B0603195E295C083706AD
:1012A000031D56295B083606031907155E08370625
:1012B000031D5E295D0836060319071160085F06E5
:1012C00003196A295F084B02031885144B08600252
:1012D000031885104E1985146208610603197829D0
:1012E0004B0861020318051462084B02031805102D
:1012F000CC08031D0514D208031D8329D008031D43
:1013000083298A1193224D118A15CD1CCE283E08BF
:10131000093C03189529BF0ABE01D008031D932973
:10132000D208031995298A1193228A11A8276C08DB
:101330006B068A150319A2298A11E1278A119322C3
:101340006B08EC00CD108A15CE2883120313B5016B
:10135000B601B7010130B8000130B9000130BA0060
:101360002330BB000030BC000130BD00BE01BF0116
:101370000830C8000130C9004630CA00B301B401CA
:10138000CB01CC01CD014E10CE104E11CE114E121C
:10139000CF01D001D101D201D301D401D501D601B1
:1013A000D701D801D901DA01DB01DC01DD01DE0161
:1013B0002830DF002730E0002430E1002530E20053
:1013C0000830E3000230E4008030E5000730E6003A
:1013D0004030E7004230E800C030E9008830EA00E1
:1013E000A001A101A201A301A401A501A601A701D9
:1013F000A801A901AA01AB01AC01AD01AE01AF0189
:10140000EB01EC01ED010830EE000130EF00F001DE
:10141000F1018A150A12CD280B1D152A8312031318
:10142000BE0A3D308100CD140B11831203130C1C36
:101430001E2AFF308F008E000C104D15320E8400D6
:0E144000310E8A00300E8300FF0E7F0E090071
:02400E00B13FC0
:00000001FF
