:040000008A15442AEF
:08000800FF00030E8312031335
:10001000B0000A0EB100040EB2008A150A12AB2A13
:100020000330FB07FB0CFB0C7F30FB050000FB0BD8
:100030001628080083127E088316A200A10103106F
:10004000A20DA10DA20DA10DA2070318A10AA207DE
:100050000318A10A3530A2070318A10A00302107AE
:100060008A002008A1002208820000308A000030A7
:10007000A2004B30442800308A000030A2005730E4
:1000800044280030A2006F30A1070318A20A2208FA
:100090008A0021088200313428343134303431343C
:1000A0003034313431343034313430343134043458
:1000B000083412341634203424342834323436349C
:1000C00040344434483452345634603464346834F0
:1000D00072347634803484348834923496343F34A5
:1000E00006345B344F3466346D347D3407347F34EA
:1000F0006F3400000000000000000000000000005D
:10010000FA0B79280800F608031D87280800F93043
:10011000FF3E031D88280000F60B872808006708AB
:10012000FE000F307C058316A0001A208312FD000C
:10013000710870068A110A12031DA0286808FD04C0
:10014000831320308400700884077D088000F00A43
:100150000800C611C511C0137808C4008711071222
:1001600042118030F900F9080319D628790878057A
:100170000319BD2883160716BF28831607120A30F5
:100180008312FB0010208316871583128719CA2853
:100190006400C5280A30FB001020831687110A303E
:1001A0008312FB0010200310F90CB328C51541166B
:1001B000C112831607160A308312FB001020831623
:1001C000871583128719E6286400E1280A30FB00AE
:1001D00010207A10071A7A140A30FB0010208316B8
:1001E0008711831241120A30FB001020FB017A189C
:1001F000FB0A080083120313C611C51141150A300A
:10020000FB001020871107128316871107120A308E
:100210008312FB0010208316871583128719122979
:1002200064000D290A30FB001020831607160A30DF
:100230008312FB001020071E1F2987192329C615CA
:10024000C21141110800421641114110C110C111E3
:10025000411208000A3083120313FB001020C6115C
:10026000C5114114831687150716831287110712CB
:10027000871D5729071E57290A30FB0010208719B0
:100280004529C615C215411008000712831607122A
:100290000A308312FB0010208711831687110A3061
:1002A0008312FB001020C2154110C5150800C615A9
:1002B000C2154110C1104111C11141120800831330
:1002C000203084007B08840700083F3A031D0800A3
:1002D0008313203084007B088407003080000800EE
:1002E000FA0108307A020318080001307905FB0092
:1002F0007B1886147B1C86100611F9080310F90C74
:100300000615FA0A71290130F800F901083079025E
:10031000031808008316871283128712780877055E
:10032000031994298316871605308312FA00792061
:100330008316871603108312F80DF90A8629A20185
:10034000A301A201A30103302102031DA929E83062
:100350002002031CB629A11BB629E830A0020330F5
:10036000031CA103A1021030A307A3292108803A8E
:10037000A40080302402031DBF2964302002031C26
:10038000C7296430A002031CA103A30AB6292108CF
:10039000803AA40080302402031DD0290A302002B4
:1003A000031CDB290A30A002031CA1031030A207A2
:1003B0000318A30AC7292008A20721080318A30AC3
:1003C000A3070800C611C511C013C1157818C116BE
:1003D000781CC112421587110712831607160A30BE
:1003E0008312FB001020FA018030F900F90803198C
:1003F000132A8316871583128719002A6400FB29A4
:100400000A30FB001020831607168312071E0A2AE3
:100410007908FA04831687110A308312FB00102032
:100420000310F90CF629C515C111F80803191B2A88
:10043000831607161D2A831607120A308312FB0043
:1004400010208316871583128719282A6400232A0F
:10045000C5110A30FB001020831687118312C515C1
:100460000A30FB0010207A08FB0008002A21D03057
:10047000F800A9207608F800A9207708F800A9203C
:10048000FA2008007B0E0F39FC008F207B08FC004F
:100490008F2008007203031D602A79087806031D67
:1004A000542A7A08F800712A0F307805FB007B087F
:1004B000093A031D5E2A0730F807712AF80A712AE3
:1004C0007A087806031D672A7908F800712A0F3028
:1004D0007805FB00FB08031D702A0730F802712A1B
:1004E000F8037808FB000800A401A701A801200870
:1004F000A5002108A600A31F832AA417A209A30907
:10050000A20A0319A30A241A952A221C8D2A250857
:10051000A70726080318260FA8070310A30CA20C90
:100520000310A50DA60DA40A832AA41F0800A7097D
:10053000A809A70A0319A80A080083120313F601E1
:10054000023052020319F60A5308F60455087604DD
:1005500003190D2C5303031DB92A0330CB00F001FE
:100560000330F1002030FB0042223D08FB00422214
:100570003B2C5308043A031DD12A0330CB005E30D4
:10058000A0005F30A1006E30A2006708FE003A08AC
:100590008316A0001A2083126807A3008A110A128A
:1005A0003B2C5308053A031DE72A0130CB00D40841
:1005B0000319DF2A0630A0005B30A100E32A5B307C
:1005C000A0006630A1007430A200A3013B2CD50826
:1005D0000319E02B0530F1005508013A03191E2BD1
:1005E000033A0319302B013A0319382B073A031940
:1005F000452B013A03194D2B033A03195E2B013A9F
:100600000319662B0F3A0319732B013A03197B2B3D
:10061000033A03198C2B013A0319942B073A031957
:10062000A12B013A0319A92B033A0319BC2B013A58
:100630000319C42B1F3A0319D82B3B2C3830A000C8
:10064000A1013F30A2005430A3000530CB0004309C
:10065000F0005708FB0042225608FB0042223B2CC8
:100660000730CB000630F0005608FB0042223B2C3E
:100670007130A3000530CB000430F0005908FB00B6
:1006800042225808FB0042223B2C0730CB000630A8
:10069000F0005808FB0042223B2C7C30A0000630C2
:1006A000A1005430A3000530CB000430F0005B08FB
:1006B000FB0042225A08FB0042223B2C0730CB00B1
:1006C0000630F0005A08FB0042223B2C7130A30098
:1006D0000530CB000430F0005D08FB0042225C08CE
:1006E000FB0042223B2C0730CB000630F0005C08B8
:1006F000FB0042223B2C7C30A0005B30A100543038
:10070000A3000530CB000430F0005F08FB0042225C
:100710005E08FB0042223B2C0730CB000630F00085
:100720005E08FB0042223B2C7130A3000530CB0059
:100730000430F0006108FB0042226008FB00422206
:100740003B2C0730CB000630F0006008FB00422253
:100750003B2C7130A0005F30A1005430A200A301F7
:100760003F30A4005430A5000730CB000630F00025
:100770006208FB0042223B2C7130A5000630F000DD
:100780006308FB0042223B2C7630A0007B30A100A6
:100790005F30A2007830A3003F30A4005430A500A1
:1007A0000730CB000630F0006408FB0042223B2CEF
:1007B0007130A5000630F0006508FB0042223B2C9A
:1007C0005308023A0319EE2B013A0319F12B053AAB
:1007D0000319F42B013A0319F72BFA2B0330CB0042
:1007E000FC2B0130CB00FC2B0530CB00FC2B073061
:1007F000CB00FC2B0830CB00F0010130F1003B08AE
:10080000FB004222FB015F210330F1003C08FB00AA
:1008100042220230FB005F213B2C0830CB0001302C
:10082000F1005203031D162C0230F100CF0803190A
:100830002B2CF030360503192B2C360DB60CB50CCD
:10084000360DB60CB50C360DB60CB50C360DB60C17
:10085000B50C0230F100F0013608FB0042223508E9
:10086000FB0042226808A304FB015F21CF080319A3
:100870003B2C4030A000D508031D752C371C432CA1
:100880000530F100452C0830F1003908FA00D40891
:100890000319592C3908123C0318592C1230FA024A
:1008A0000F307A05FB007B08073C0318592C0630F3
:1008B000FA02D4080319612CB908031D612C123007
:1008C000FA000430F0007A08FB0042220430FB00FA
:1008D0005F21D4080319722C3908113C0318722CBB
:1008E0000730F1003808FB0042225308F7000230BD
:1008F000F900083079020318922C77087906031D55
:10090000892C831328308400790884070130800003
:10091000902C8313283084007908840700308000ED
:10092000F90A792CA8010518A80AA9018518A90AAD
:1009300086116A08F9007021861586116C08F90085
:100940007021F801660878020318C12C4A1CAF2CEC
:100950004B087806031DAF2CF9017021B72C8313C7
:1009600020308400780884070008F9007021831380
:1009700028308400780884070008F9007021F80AFC
:10098000A22C861508008312031386118830F90003
:100990007021861508007508F70083217608F70096
:1009A0008321080083120313F501F6010830760253
:1009B0000318ED2C0310F50C83168712831287128F
:1009C0008316871604308312FB001020871AF51750
:1009D0000630FA007920F60AD62C7508F6000800D1
:1009E0008316071687158312C0017608C3000830E6
:1009F000C000C101C201C217C511C611071287117B
:100A0000C016FA2008002A21D030F800A920F801E9
:100A1000A920F801A9203808F800A9203908F80011
:100A2000A9203A08F800A9203B08F800A9203C08B2
:100A3000F800A9203D08F800A920FA2008002A2182
:100A4000D030F800A9207608F800A920FA202A2141
:100A5000D130F800A9200130F800E2217B08F7002E
:100A6000FA207708F80008000E3083120313F6000E
:100A7000F70136220F30F600F70136220800831204
:100A80000313F6014C08F7004D08F6047608F80049
:100A90007708F900053C031D4F2D76084F3C0318DD
:100AA000542DF71B542D0800B308031D5A2DB4080C
:100AB00003198C2DA0307607FE0077088316A0005E
:100AC0000318A00A83123408803A8316A300200872
:100AD000803A2302031D6F2D83127E083302031C0C
:100AE0000800A030831276028316A10083127708D3
:100AF0008316A200031CA2032208803AA3008312DB
:100B00003408803A83162302031D8A2D831233088A
:100B100083162102031C080083127608B3007708AD
:100B2000B400CF01F91BCF0ACF0803199C2DF80997
:100B3000F909F80A0319F90A06308316A000A10181
:100B4000831278088316A200831279088316A30003
:100B5000742227088312FA00831628088312FD00E6
:100B60007808FC007908FB00790DFB0CFC0C790D72
:100B7000FB0CFC0C7C08FA077D080318FB0AFB073A
:100B80007A088316A00083127B088316A1009F2198
:100B900022088312B500831623088312B600360894
:100BA000CE005203031D0800043076078316A00010
:100BB000831277088316A2000318A20A2208831260
:100BC000FE008316220D8312FE0C8316A00C220D4C
:100BD0008312FE0C8316A00C220D8312FE0C8316CA
:100BE000A00C831276088316A00783127708831659
:100BF000A10083127E08031CFF2D8316A10A831611
:100C0000A1074030A00701300318A10AA10720085E
:100C10008312F800831621088312F900CF01F91B13
:100C2000CF0ACF080319192EF809F909F80A031990
:100C3000F90A78088316A000831279088316A100A8
:100C40009F2122088312B500831623088312B60061
:100C500008002A21AE30F800A920F801A920F801E7
:100C6000A9204430F800A9205608F800A920570808
:100C7000F800A9205808F800A9205908F800A92070
:100C80005A08F800A9205B08F800A9205C08F800C1
:100C9000A9205D08F800A9206208F800A9206308CF
:100CA000F800A9206408F800A9206508F800A92028
:100CB0005408F800A9205E08F800A9205F08F80091
:100CC000A9206008F800A9206108F800A920FA20EE
:100CD0000A30F600832008002A21AE30F800A9204F
:100CE000F801A920F801A920FA202A21AF30F80044
:100CF000A920F801E2217B08F6007608443A03199E
:100D0000852E0130F800E221CA2EF801E2217B088D
:100D1000D600F801E2217B08D700F801E2217B0828
:100D2000D800F801E2217B08D900F801E2217B0814
:100D3000DA00F801E2217B08DB00F801E2217B0800
:100D4000DC00F801E2217B08DD00F801E2217B08EC
:100D5000E200F801E2217B08E300F801E2217B08D0
:100D6000E400F801E2217B08E500F801E2217B08BC
:100D7000D400F801E2217B08DE00F801E2217B08C3
:100D8000DF00F801E2217B08E0000130F800E221F9
:100D90007B08E100FA200800831203135508013A8A
:100DA0000319002F033A0319092F013A0319122FCF
:100DB000073A03191B2F013A0319242F033A031989
:100DC0002D2F013A0319362F0F3A03193F2F013AFD
:100DD0000319482F033A0319512F013A03195A2FC7
:100DE000073A0319632F013A03196C2F033A0319C9
:100DF000762F013A0319862F1F3A03198F2F080007
:100E00005708F8002330F900FA014A227B08D7007E
:100E100008005608F8005930F900FA014A227B0808
:100E2000D60008005908F8002330F900FA014A22D8
:100E30007B08D90008005808F8005930F900FA0179
:100E40004A227B08D80008005B08F8002330F9002C
:100E5000FA014A227B08DB0008005A08F8005930E2
:100E6000F900FA014A227B08DA0008005D08F80060
:100E70002330F900FA014A227B08DD0008005C08F3
:100E8000F8005930F900FA014A227B08DC0008001A
:100E90005F08F8002330F900FA014A227B08DF00DE
:100EA00008005E08F8005930F900FA014A227B0870
:100EB000DE0008006108F8002330F900FA014A2238
:100EC0007B08E10008006008F8005930F900FA01D9
:100ED0004A227B08E00008006208F8004030F90070
:100EE0002030FA004A227B08E20008006308620210
:100EF00003187C2F6208E3006308F8006208F90019
:100F00002030FA004A227B08E30008006408F80059
:100F10004030F900FA014A227B08E4000800640826
:100F200065020318952F6408E5006508F800403055
:100F3000F9006408FA004A227B08E50008008312E1
:100F400003135308013A0319B92F033A0319C22FA7
:100F5000013A0319CC2F073A8A1503190728013AD9
:100F600003191228033A03191828013A03192228F1
:100F700008003D08F8009930F900FA014A227B0880
:100F8000BD0008003C08F8001230F9000130FA00FA
:100F90004A227B08BC0008003C08F600F0307605C9
:100FA0000319D72F3C0E0F39F8007808F607F6031F
:100FB0003E08FE0076088316A0001A208312F70070
:100FC00076038A110A12031DFD2FF80118307802EA
:100FD0000318FD2F3F08FE0078088316A0001A2092
:100FE0008312F9003D0879068A110A12031DFB2FAE
:100FF0002930F700FD2FF80AE62F3B08F8007708A4
:10100000F9000130FA004A227B08BB0008003A08C8
:10101000F8000730F9000130FA008A114A227B08F3
:10102000BA000800D40A5408023C031CD40108008A
:101030003908F8002330F900FA018A114A227B08A6
:10104000B90008003808F8005930F900FA018A118F
:101050004A227B08B80008008312031386116B082C
:10106000F9008A1170218316861420308312F6004D
:10107000F701203077028A1503184828F603061175
:101080000000861C45280310F60D0615F70A3928BE
:1010900083168610831286157608EE000800CC3081
:1010A00083120313F5004430F6008A11CB240800A4
:1010B000CC3083120313F500BE30F6008A11CB2426
:1010C000D2247608CD00D2247608CC000800831202
:1010D00003136E081F3A03198328083A03198B2853
:1010E000183A03199328083A03199B281C3A031944
:1010F000A828083A0319B228183A0319BE28083A52
:101100000319CB280800F601871CF60A7618871405
:10111000761C87100800F601071DF60A76180715D9
:10112000761C07110800F601511CF60A51107608CA
:10113000031D51140800D5088A11031D2926D30167
:10114000D501D20A5208033C031CD2013F250800F6
:10115000D501D30A5308073C031808008A11032558
:10116000D3010800F201D3080319B9288A119F2777
:101170000800D5088A11031DCC2608000130F200B2
:10118000D3080319C6288A119F270800D5088A1199
:10119000031DCC260800D301D50A5508103C0318BE
:1011A00008008A112926D501080083160313871623
:1011B0008312F50187128316871232308312FA00E8
:1011C0008A1179208316871607308312FA00792056
:1011D000871AF3013230FA007920080083160313CE
:1011E000850183128501831686010E3083128600E5
:1011F00021308316870038308312870083168101DF
:10120000811707309F000115811401143D308312AE
:1012100081000B118B1607309000FF308F008E007D
:1012200083160C148312D0010130F6008A11F024C9
:10123000F430F60083206C260F30F6001F25780866
:10124000F5008A15F51F27298A11342503258A11EF
:10125000C3249D228B170B1708008A112A21D03036
:10126000F800A920F801A920FA202A21D130F8009D
:10127000A920F801E2217B08B700F801E2217B08F0
:10128000B800F801E2217B08B900F801E2217B08EF
:10129000BA00F801E2217B08BB00F801E2217B08DB
:1012A000BC000130F800E2217B08BD00FA200800F4
:1012B000EE205008003C8A1503185929501D122AA7
:1012C000D308031DA0292D213708293A8A150319AF
:1012D0006D293708593A031D7229D5208A154F20E8
:1012E0008A157D29B708031979293708303A031D73
:1012F0007D29D5208A1558203F258312B7088A15E5
:10130000031DA0293A08073A031DA0293B08243CE5
:101310000318A0293903031D94293C08033A031D2F
:101320009429B90A8A1103253908023A8A15031D3E
:10133000A0293C08103A031DA029B9038A110325EE
:10134000D5088A15031D092A59085706031DAC291B
:10135000580856060319BC2957083906031DB42935
:10136000560838060319871459083906031DBC2985
:1013700058083806031987105D085B06031DC42949
:101380005C085A060319D4295B083906031DCC29C9
:101390005A083806031907155D083906031DD429B4
:1013A0005C0838060319071161085F06031DDC2974
:1013B00060085E060319EC295F083906031DE4295D
:1013C0005E0838060319071561083906031DEC2964
:1013D0006008380603190711630862060319F82923
:1013E00062084E02031885144E0863020318851024
:1013F00051188514650864060319062A4E0864020C
:101400000318051465084E0203180510CF08031DC4
:101410000514D508031D112AD308031D112A8A11AA
:101420009D2250118A15D01C5929C80A4808093C28
:101430000318242ACA0AC801D308031D222AD50882
:101440000319242A8A119D228A152C20F5016F0880
:101450006E0603192E2A0130F500382AEE0803190A
:10146000382AC90A4908043C0318382A0130F50013
:10147000F5080319412A67208A119D226E08EF00A2
:10148000C901D0108A15592983120313B701B80175
:10149000B9010130BA000130BB000130BC0023307B
:1014A000BD000030BE000130BF00C801C901CA0143
:1014B0000830CB000130CC004630CD00B301B40180
:1014C000B501B601CE01CF01D0015110D110D2012A
:1014D000D301D401D501D601D701D801D901DA0150
:1014E000DB01DC01DD01DE01DF01E001E10128308B
:1014F000E2002730E3002430E4002530E500083026
:10150000E6000230E7008030E8000730E9004030B4
:10151000EA004230EB00C030EC008830ED00A00162
:10152000A101A201A301A401A501A601A701A8018F
:10153000A901AA01AB01AC01AD01AE01AF01EE0101
:10154000EF01F0010830F1000130F200F301F40185
:101550008A150A1258290B1DB32A3D308312031332
:101560008100D0140B11831203130C1CBC2AFF3012
:101570008F008E000C105015320E8400310E8A0040
:0A158000300E8300FF0E7F0E0900FD
:02400E00B13FC0
:00000001FF
