:02000000FF2FD0
:08000800FF00030E8312031335
:10001000B0000A0EB100040EB2008A150A1261285F
:100020000330F207F20CF20C7F30F2050000F20B05
:10003000162808007408F700F6010310F70DF60DF6
:10004000F70DF60DF7070318F60AF7070318F60A77
:100050003330F7070318F60A003076078A00750870
:10006000F6007708820000308A000030F70049303F
:10007000422800308A000030F70055304228003016
:10008000F7006D30F6070318F70A77088A0076083C
:100090008200313428343134303431343034313426
:1000A000313430343134303431340434083412349F
:1000B0001634203424342834323436344034443432
:1000C000483452345634603464346834723476348C
:1000D000803484348834923496343F3406345B342C
:1000E0004F3466346D347D3407347F346F34000010
:1000F000000000000000000000000000F10B772865
:100100000800EC08031D85280800F930FF3E031D98
:1001100086280000EC0B852808005E08F4000F30EC
:100120007205F5001A20F300680867068A110A12A2
:10013000031D9C285F08F3078313203084006708A1
:10014000840773088000E70A0800C611C511C013B0
:100150006F08C4008711071242118030F000F008C8
:100160000319D22870086F050319B92883160716DA
:10017000BB28831607120A308312F2001020831660
:10018000871583128719C6286400C1280A30F20037
:100190001020831687110A308312F20010200310FA
:1001A000F00CAF28C5154116C112831607160A3088
:1001B0008312F20010208316871583128719E22814
:1001C0006400DD280A30F20010207110071A711443
:1001D0000A30F200102083168711831241120A3070
:1001E000F2001020F2017118F20A080083120313C2
:1001F000C611C51141150A30F200102087110712EF
:100200008316871107120A308312F200102083161A
:100210008715831287190E29640009290A30F20014
:100220001020831607160A308312F2001020071ED2
:100230001B2987191F29C615C21141110800421632
:1002400041114110C110C111411208000A3083123E
:100250000313F2001020C611C5114114831687152F
:100260000716831287110712871D5329071E53296A
:100270000A30F200102087194129C615C215411015
:1002800008000712831607120A308312F2001020AA
:100290008711831687110A308312F2001020C215CD
:1002A0004110C5150800C615C2154110C1104111F5
:1002B000C11141120800F101083071020318080051
:1002C00001307005F20072188614721C8610061137
:1002D000F0080310F00C0615F10A5C290130EF005C
:1002E000F001083070020318080083168712831289
:1002F00087126F086E0503197F298316871605304C
:100300008312F10077208316871603108312EF0DF6
:10031000F00A7129C611C511C013C1156F18C11695
:100320006F1CC112421587110712831607160A3077
:100330008312F2001020F1018030F000F008031960
:10034000BB298316871583128719A8296400A3295E
:100350000A30F2001020831607168312071EB229F6
:100360007008F104831687110A308312F2001020FE
:100370000310F00C9E29C515C111EF080319C329FC
:1003800083160716C529831607120A308312F20056
:1003900010208316871583128719D0296400CB2972
:1003A000C5110A30F2001020831687118312C5157B
:1003B0000A30F20010207108F20008002621D03027
:1003C000EF00A5206D08EF00A5206E08EF00A52026
:1003D000F6200800710E0F39F2008D207108F2002E
:1003E0008D2008006903031D082A6F086E06031D8F
:1003F000FC297008EE00192A0F306E05F100710813
:10040000093A031D062A0730EE07192AEE0A192AAF
:1004100070086E06031D0F2A6F08EE00192A0F30B0
:100420006E05F100F108031D182A0730EE02192AA3
:10043000EE036E08F1000800831203134F084E0408
:10044000ED0050086D0403192F2B4F03031D342AB0
:100450000330C800E7010330E8002030F100EA2152
:100460003B08F100EA21452B4F08043A031D4A2AB4
:100470000330C8005E30A0005F30A1006E30A200E3
:100480005E08F4003808F5001A205F07A3008A11FF
:100490000A12452BD0080319072B0530E800500835
:1004A000013A0319752A033A0319872A013A0319F5
:1004B0008F2A073A03199C2A013A0319A42A033AFE
:1004C0000319B32A013A0319BB2A0F3A0319C82AA0
:1004D000013A0319D02A033A0319E32A013A03190E
:1004E000EB2A073A0319FF2A452B3830A000A10157
:1004F0003F30A2005430A3000530C8000430E700AC
:100500005208F100EA215108F100EA21452B073099
:10051000C8000630E7005108F100EA21452B713090
:10052000A3000530C8000430E7005408F100EA21B8
:100530005308F100EA21452B0730C8000630E700D8
:100540005308F100EA21452B7C30A0005430A30071
:100550000530C8000430E7005608F100EA215508CC
:10056000F100EA21452B0730C8000630E7005508A6
:10057000F100EA21452B7130A3000530C80004309A
:10058000E7005808F100EA215708F100EA21452B5D
:100590000730C8000630E7005708F100EA21452B74
:1005A0007130A0005F30A1005430A200A3013F30A1
:1005B000A4005430A5000730C8000630E7005908F1
:1005C000F100EA21452B7130A5000630E7005A08FA
:1005D000F100EA21452B7630A0007B30A1005F308E
:1005E000A2007830A3003F30A4005430A5000730AB
:1005F000C8000630E7005B08F100EA21452B7130A6
:10060000A5000630E7005C08F100EA21452B4F0801
:10061000023A0319152B013A0319182B063A03194C
:100620001B2B033A03191E2B212B0330C800232B4D
:100630000130C800232B0530C800232B0730C80029
:10064000232B0830C800E7010130E8003908F10029
:10065000EA210330E8003A08F100EA21452B08308E
:10066000C8000130E800E7013408F100EA21033056
:10067000E8003308F100EA2120083F3A0319A001FD
:10068000CB080319452B4030A000D008031D572B81
:100690000430E700351C4F2B0530E800512B0830A3
:1006A000E8003708F100EA213608F100EA214F0A94
:1006B000EE000230F000083070020318742B6E0850
:1006C0007006031D6B2B8313283084007008840789
:1006D00001308000722B8313283084007008840757
:1006E00000308000F00A5B2BA8010518A80AA901B8
:1006F0008518A90A86116108F0005B21861586110C
:100700006308F0005B21EF015D086F020318A32B63
:100710003F1C912B48086F06031D912BF0015B21B4
:10072000992B8313203084006F0884070008F000A1
:100730005B218313283084006F0884070008F000D1
:100740005B21EF0A842B86150800831203138611A0
:100750008830F0005B21861508006C08EE006E21E1
:100760006D08EE006E21080083120313EC01ED0109
:1007700008306D020318CF2B83168712831287125D
:100780008316871603308312F20010200310EC0C3E
:10079000871AEC170630F1007720ED0AB82B6C08A9
:1007A000ED0008008316071687158312C0016D0837
:1007B000C3000830C000C101C201C217C511C61173
:1007C00007128711C016F62008002621D030EF004E
:1007D000A520EF01A520EF01A5203608EF00A520F8
:1007E0003708EF00A5203808EF00A5203908EF00F2
:1007F000A5203A08EF00A5203B08EF00A520F62031
:1008000008002621D030EF00A5206D08EF00A520BC
:10081000F6202621D130EF00A5200130EF008A21FB
:100820007208EE00F6206E08EF0008000E3083120A
:100830000313ED00EE01DE210F30ED00EE01DE21AD
:1008400008002621AE30EF00A520EF01A520EF0122
:10085000A5204430EF00A5205108EF00A520520844
:10086000EF00A5205308EF00A5205408EF00A520B5
:100870005508EF00A5205608EF00A5205708EF0007
:10088000A5205808EF00A5205908EF00A5205A0818
:10089000EF00A5205B08EF00A5205C08EF00A52075
:1008A000F6200A30EC00812008002621AE30EF004F
:1008B000A520EF01A520EF01A520F6202621AF30CD
:1008C000EF00A520EF018A217208ED006D08443A7F
:1008D00003196E2C0130EF008A219F2CEF018A2131
:1008E0007208D100EF018A217208D200EF018A213B
:1008F0007208D300EF018A217208D400EF018A2127
:100900007208D500EF018A217208D600EF018A2112
:100910007208D700EF018A217208D800EF018A21FE
:100920007208D900EF018A217208DA00EF018A21EA
:100930007208DB000130EF008A217208DC00F6202B
:100940000800831203135008013A0319C92C033A13
:100950000319D22C013A0319DB2C073A0319E42CB2
:10096000013A0319ED2C033A0319F62C013A031945
:10097000FF2C0F3A0319082D013A0319112D033AE0
:1009800003191B2D013A03192B2D073A0319352D95
:1009900008005208EE002330EF00F001F221710848
:1009A000D20008005108EE005930EF00F001F221AA
:1009B0007108D10008005408EE002330EF00F00168
:1009C000F2217108D40008005308EE005930EF00FE
:1009D000F001F2217108D30008005608EE00233020
:1009E000EF00F001F2217108D60008005508EE0072
:1009F0005930EF00F001F2217108D50008005808C5
:100A0000EE002330EF00F001F2217108D800080059
:100A10005708EE005930EF00F001F2217108D700BD
:100A200008005908EE004030EF002030F000F221BD
:100A30007108D90008005A0859020318212D5908D5
:100A4000DA005A08EE005908EF002030F000F221D9
:100A50007108DA0008005B08EE004030EF0020303B
:100A6000F000F2217108DB0008005C085B0203184B
:100A70003B2D5C08DB005C08EE004030EF005B08BB
:100A8000F000F2217108DC000800831203134F0804
:100A9000013A03195B2D033A0319642D013A031936
:100AA0006E2D073A0319A52D013A0319AF2D033A0C
:100AB0000319B82D08003B08EE009930EF00F00153
:100AC000F2217108BB0008003A08EE001230EF0076
:100AD0000130F000F2217108BA0008003A08EC0079
:100AE000F0306C050319792D3A0E0F39EE006E08BF
:100AF000EC07EC033C08F4006C08F5001A20ED004C
:100B00006C038A110A12031D9B2DEE0118306E0230
:100B100003189B2D3D08F4006E08F5001A20EF0025
:100B20003B086F068A110A12031D992D2930ED002A
:100B30009B2DEE0A862D3908EE006D08EF0001307E
:100B4000F000F2217108B90008003808EE00073003
:100B5000EF000130F000F2217108B80008003708FA
:100B6000EE002330EF00F001F2217108B700080019
:100B70003608EE005930EF00F001F2217108B6009E
:100B80000800F601F901FA017208F7007308F8008D
:100B9000F51FD02DF617F409F509F40A0319F50A23
:100BA000761AE22D741CDA2D7708F90778080318F5
:100BB000780FFA070310F50CF40C0310F70DF80D7D
:100BC000F60AD02DF61F0800F909FA09F90A0319E7
:100BD000FA0A08008312031386116208F0005B21F1
:100BE0008316861420308312EC00ED0120306D0254
:100BF0000318062EEC0306110130F2001020861CAB
:100C0000032E0310EC0D0615ED0AF62D8316861043
:100C1000831286156C08E5000800CC30831203139C
:100C2000EC004430ED00AD230800CC3083120313F8
:100C3000EC00BE30ED00AD23B4236D08CA00B42330
:100C40006D08C90008008312031365081F3A0319D1
:100C50003F2E083A0319472E183A03194F2E083A27
:100C60000319572E1C3A03195F2E083A0319682EF0
:100C7000183A0319722E083A03197D2E0800EC0168
:100C8000871CEC0A6C1887146C1C87100800EC0198
:100C9000071DEC0A6C1807156C1C07110800EC0105
:100CA0004D1DEC0A4D116C08031D4D150800CF01B8
:100CB000D001CE0A4E08023C031CCE010800D00130
:100CC000CF0A4F08063C03180800E523CF010800AF
:100CD000E901CF0803196E2E45250800D008031D31
:100CE000A12408000130E900CF080319792E452519
:100CF0000800D008031DA1240800CF01D00A500825
:100D00000C3C03180800D0012124080083160313AB
:100D100087168312EC0187128316871232308312F2
:100D2000F10077208316871607308312F1007720B1
:100D3000871AEA013230F100772008008316031386
:100D4000850183128501831686010E308312860089
:100D50002130831687003830831287008316810183
:100D6000811707309F000115811401143D30831253
:100D700081000B118B1607309000FF308F008E0022
:100D800083160C148312CC018B170B170130ED0066
:100D9000D22355240F30ED0001246F08EC00EC1F26
:100DA000D32E1624E523A5231C2208002621D030AB
:100DB000EF00A520EF01A520F6202621D130EF007D
:100DC000A520EF018A217208B500EF018A2172087F
:100DD000B600EF018A217208B700EF018A2172087C
:100DE000B800EF018A217208B900EF018A21720868
:100DF000BA000130EF008A217208BB00F62008001B
:100E000083120313EC014908ED004A08EC04CB01FE
:100E1000ED1BCB0ACB080319122FEC09ED09EC0AE4
:100E20000319ED0A0630F200F3016C08F4006D08B6
:100E3000F500C1257908EE007A08F1006C08F00091
:100E40006D08EF006D0DEF0CF00C6D0DEF0CF00C5C
:100E50007008EE0771080318EF0AEF07B301B40139
:100E600003306F02031D362FE8306E02031C432F40
:100E7000EF1B432FE830EE020330031CEF03EF02B9
:100E80001030B407302F6F08803AF20080307202C1
:100E9000031D4C2F64306E02031C542F6430EE028D
:100EA000031CEF03B40A432F6F08803AF20080302E
:100EB0007202031D5D2F0A306E02031C682F0A3078
:100EC000EE02031CEF031030B3070318B40A542FCB
:100ED0006E08B3076F080318B40AB40708009E260B
:100EE0004C08003C0318702F4C1DE62FCF08031D43
:100EF0008F2FD6263508293A0319822F3508593AFB
:100F0000031D852F86260D268F2FB50803198C2FDC
:100F10003508303A031D8F2F862615260027D00866
:100F2000031DDE2F54085206031D9A2F5308510645
:100F30000319AA2F52083706031DA22F510836069F
:100F40000319871454083706031DAA2F53083606C1
:100F50000319871058085606031DB22F5708550667
:100F60000319C22F56083706031DBA2F5508360637
:100F70000319071558083706031DC22F57083606F0
:100F8000031907113408EC005A0859060319D02F29
:100F900059086C02031885146C085A02031885104E
:100FA0004D1985145C085B060319DE2F6C085B0283
:100FB000031805145C086C0203180510D008031D03
:100FC000E52FCF08031DE52F1C224C11CC1C702FE0
:100FD0003E08093C0318F42FBF0ABE01CF08031DC9
:100FE000F32FD008031D1C22EA25660865060319A5
:100FF000FD2F23261C226508E600CC10702F8312DB
:101000000313B501B601B7010130B8000130B900D2
:101010000130BA002330BB000030BC000130BD00FD
:10102000BE01BF010830C8000130C9004630CA0007
:10103000B3012030B400CB01CC014D10CD104D11C7
:10104000CD114D12CE01CF01D001D101D201D3017A
:10105000D401D501D601D701D8012830D9002730D5
:10106000DA002430DB002530DC000830DD000230FF
:10107000DE008030DF000730E0004030E100423029
:10108000E200C030E3008830E400A001A101A20129
:10109000A301A401A501A601A701A801A901AA0114
:1010A000AB01AC01AD01AE01AF01E501E601E70125
:1010B0000830E8000130E900EA01EB018A110A1268
:1010C0006F2F0B1D6A2883120313BE0A3D30810067
:1010D000CC140B11831203130C1C7328FF308F00E8
:1010E0008E000C104C15320E8400310E8A00300E2A
:0810F0008300FF0E7F0E0900D2
:02400E00B13FC0
:00000001FF
