:040000008A15BF2975
:08000800FF00030E8312031335
:10001000B0000A0EB100040EB2008A150A12232A9B
:100020000330F807F80CF80C7F30F8050000F80BE7
:10003000162808007B08FE00FD010310FE0DFD0DD3
:10004000FE0DFD0DFE070318FD0AFE070318FD0A4D
:100050003330FE070318FD0A00307D078A007C0854
:10006000FD007E08820000308A000030FE0049302A
:10007000422800308A000030FE005530422800300F
:10008000FE006D30FD070318FE0A7E088A007D0819
:100090008200313428343134303431343034313426
:1000A000313430343134303431340434083412349F
:1000B0001634203424342834323436344034443432
:1000C000483452345634603464346834723476348C
:1000D000803484348834923496343F3406345B342C
:1000E0004F3466346D347D3407347F346F34000010
:1000F000000000000000000000000000F70B77285F
:100100000800F308031D85280800F930FF3E031D91
:1001100086280000F30B852808006408FB000F30D8
:100120007905FC001A20FA006E086D068A110A1281
:10013000031D9C286508FA048313203084006D0891
:1001400084077A088000ED0A0800C611C511C013A3
:100150007508C4008711071242118030F600F608B6
:100160000319D228760875050319B92883160716CE
:10017000BB28831607120A308312F800102083165A
:10018000871583128719C6286400C1280A30F80031
:100190001020831687110A308312F80010200310F4
:1001A000F60CAF28C5154116C112831607160A3082
:1001B0008312F80010208316871583128719E2280E
:1001C0006400DD280A30F80010207710071A771431
:1001D0000A30F800102083168711831241120A306A
:1001E000F8001020F8017718F80A080083120313AA
:1001F000C611C51141150A30F800102087110712E9
:100200008316871107120A308312F8001020831614
:100210008715831287190E29640009290A30F8000E
:100220001020831607160A308312F8001020071ECC
:100230001B2987191F29C615C21141110800421632
:1002400041114110C110C111411208000A3083123E
:100250000313F8001020C611C51141148316871529
:100260000716831287110712871D5329071E53296A
:100270000A30F800102087194129C615C21541100F
:1002800008000712831607120A308312F8001020A4
:100290008711831687110A308312F8001020C215C7
:1002A0004110C5150800C615C2154110C1104111F5
:1002B000C11141120800831320308400780884079C
:1002C00000083F3A031D080083132030840078089B
:1002D0008407003080000800F70108307702031817
:1002E000080001307605F80078188614781C86100E
:1002F0000611F6080310F60C0615F70A6D290130F1
:10030000F500F601083076020318080083168712FC
:1003100083128712750874050319902983168716AE
:1003200005308312F7007720831687160310831297
:10033000F50DF60A8229FC01FD01FC01FD010330E7
:100340007B02031DA529E8307A02031CB229FB1B9E
:10035000B229E830FA020330031CFB03FB02103021
:10036000FD079F297B08803AFE0080307E02031D36
:10037000BB2964307A02031CC3296430FA02031CCF
:10038000FB03FD0AB2297B08803AFE0080307E0222
:10039000031DCC290A307A02031CD7290A30FA023D
:1003A000031CFB031030FC070318FD0AC3297A085D
:1003B000FC077B080318FD0AFD070800C611C511DC
:1003C000C013C1157518C116751CC11242158711CD
:1003D0000712831607160A308312F8001020F7015F
:1003E0008030F600F60803190F2A8316871583124A
:1003F0008719FC296400F7290A30F80010208316B9
:1004000007168312071E062A7608F704831687113B
:100410000A308312F80010200310F60CF229C515DB
:10042000C111F5080319172A83160716192A83160E
:1004300007120A308312F8001020831687158312E2
:100440008719242A64001F2AC5110A30F8001020D9
:10045000831687118312C5150A30F800102077081B
:10046000F80008002621D030F500A5207308F5001B
:10047000A5207408F500A520F6200800780E0F3995
:10048000F9008D207808F9008D2008006F03031D06
:100490005C2A75087406031D502A7608F4006D2A3C
:1004A0000F307405F7007708093A031D5A2A073000
:1004B000F4076D2AF40A6D2A76087406031D632A70
:1004C0007508F4006D2A0F307405F700F708031D56
:1004D0006C2A0730F4026D2AF4037408F700080050
:1004E000FE018316A201A30183127A088316A000DD
:1004F00083127B088316A1008312FD1F852AFE1735
:10050000FC09FD09FC0A0319FD0A7E1A9B2A7C1CC2
:10051000902A83162008A20721080318210FA30799
:1005200003108312FD0CFC0C03108316A00DA10D0B
:100530008312FE0A852AFE1F08008316A209A3095A
:10054000A20A0319A30A080083120313F30102305D
:100550004F020319F30A5008F304520873040319F5
:10056000122C5003031DC02A0330C800ED010330D4
:10057000EE002030F8003E223B08F8003E22402CDE
:100580005008043A031DD62A0330C8005E30A0008C
:100590005F30A1006E30A2006408FB003808FC0048
:1005A0001A206507A3008A110A12402C5008053A48
:1005B000031DEC2A0130C800D1080319E42A0630D3
:1005C000A0005B30A100E82A5B30A0006630A100EB
:1005D0007430A200A301402CD2080319E52B05308A
:1005E000EE005208013A0319232B033A0319352B65
:1005F000013A03193D2B073A03194A2B013A031913
:10060000522B033A0319632B013A03196B2B0F3A50
:100610000319782B013A0319802B033A0319912B04
:10062000013A0319992B073A0319A62B013A03192A
:10063000AE2B033A0319C12B013A0319C92B1F3AF8
:100640000319DD2B402C3830A000A1013F30A2005F
:100650005430A3000530C8000430ED005408F80001
:100660003E225308F8003E22402C0730C8000630D6
:10067000ED005308F8003E22402C7130A3000530F5
:10068000C8000430ED005608F8003E225508F80076
:100690003E22402C0730C8000630ED005508F80017
:1006A0003E22402C7C30A0000630A1005430A30034
:1006B0000530C8000430ED005808F8003E22570805
:1006C000F8003E22402C0730C8000630ED005708E5
:1006D000F8003E22402C7130A3000530C8000430E1
:1006E000ED005A08F8003E225908F8003E22402C3E
:1006F0000730C8000630ED005908F8003E22402CB3
:100700007C30A0005B30A1005430A3000530C8004D
:100710000430ED005C08F8003E225B08F8003E2241
:10072000402C0730C8000630ED005B08F8003E2280
:10073000402C7130A3000530C8000430ED005E0885
:10074000F8003E225D08F8003E22402C0730C80029
:100750000630ED005D08F8003E22402C7130A0000C
:100760005F30A1005430A200A3013F30A4005430F8
:10077000A5000730C8000630ED005F08F8003E22F3
:10078000402C7130A5000630ED006008F8003E22D4
:10079000402C7630A0007B30A1005F30A200783082
:1007A000A3003F30A4005430A5000730C800063035
:1007B000ED006108F8003E22402C7130A5000630A3
:1007C000ED006208F8003E22402C5008023A03195E
:1007D000F32B013A0319F62B053A0319F92B013AC9
:1007E0000319FC2BFF2B0330C800012C0130C8007B
:1007F000012C0530C800012C0730C800012C08303E
:10080000C800ED010130EE003908F8003E22F80181
:100810005B210330EE003A08F8003E220230F80077
:100820005B21402C0830C8000130EE004F03031D4F
:100830001B2C0230EE00CC080319302CF0303405AC
:100840000319302C340DB40CB30C340DB40CB30CB0
:10085000340DB40CB30C340DB40CB30C0230EE00F8
:10086000ED013408F8003E223308F8003E22650806
:10087000A304F8015B21CC080319402C4030A000F0
:10088000D208031D7A2C351C482C0530EE004A2C6A
:100890000830EE003708F700D10803195E2C37083E
:1008A000123C03185E2C1230F7020F307705F80067
:1008B0007808073C03185E2C0630F702D1080319AC
:1008C000662CB708031D662C1230F7000430ED00CB
:1008D0007708F8003E220430F8005B21D1080319A4
:1008E000772C3708113C0318772C0730EE003608B8
:1008F000F8003E225008F4000230F600083076027C
:100900000318972C74087606031D8E2C8313283049
:1009100084007608840701308000952C83132830EA
:1009200084007608840700308000F60A7E2CA80137
:100930000518A80AA9018518A90A86116708F600F2
:100940006C21861586116908F6006C21F501630893
:1009500075020318C62C3F1CB42C48087506031DED
:10096000B42CF6016C21BC2C831320308400750854
:1009700084070008F6006C21831328308400750872
:1009800084070008F6006C21F50AA72C86150800DC
:100990008312031386118830F6006C218615080037
:1009A0007208F4007F217308F4007F21080083128D
:1009B0000313F201F301083073020318F22C8316BB
:1009C0008712831287128316871603308312F8006A
:1009D00010200310F20C871AF2170630F700772068
:1009E000F30ADB2C7208F30008008316071687153C
:1009F0008312C0017308C3000830C000C101C201E6
:100A0000C217C511C61107128711C016F6200800BB
:100A10002621D030F500A520F501A520F501A5205F
:100A20003608F500A5203708F500A5203808F500A0
:100A3000A5203908F500A5203A08F500A5203B08B7
:100A4000F500A520F62008002621D030F500A520CD
:100A50007308F500A520F6202621D130F500A52049
:100A60000130F500DE217808F400F6207408F50066
:100A700008000E3083120313F300F40132220F300A
:100A8000F300F4013222080083120313F201490833
:100A9000F3004A08F2047208F4007308F500CC0170
:100AA000F51BCC0ACC0803195A2DF409F509F40AF0
:100AB0000319F50A0630FA00FB017408FC007508FA
:100AC000FD007022831622088312F6008316230885
:100AD0008312F9007408F8007508F700750DF70C1B
:100AE000F80C750DF70CF80C7808F6077908031860
:100AF000F70AF7077608FA007708FB009B217C08C5
:100B0000B3007D08B4003408CB004F03031D080078
:100B100004307207FB007308FD000318FD0A7D080E
:100B2000FA007D0DFA0CFB0C7D0DFA0CFB0C7D0D13
:100B3000FA0CFB0C7208FB077308FC007A08031818
:100B4000FC0AFC074030FB0701300318FC0AFC07D5
:100B50007B08F4007C08F500CC01F51BCC0ACC081E
:100B60000319B72DF409F509F40A0319F50A7408F5
:100B7000FA007508FB009B217C08B3007D08B400D7
:100B800008002621AE30F500A520F501A520F501CD
:100B9000A5204430F500A5205308F500A5205408F1
:100BA000F500A5205508F500A5205608F500A5205C
:100BB0005708F500A5205808F500A5205908F500AC
:100BC000A5205A08F500A5205F08F500A5206008BB
:100BD000F500A5206108F500A5206208F500A52014
:100BE0005108F500A5205B08F500A5205C08F5007C
:100BF000A5205D08F500A5205E08F500A520F620DB
:100C00000A30F300812008002621AE30F500A5202F
:100C1000F501A520F501A520F6202621AF30F5002D
:100C2000A520F501DE217808F3007308443A031982
:100C30001D2E0130F500DE21622EF501DE2178083F
:100C4000D300F501DE217808D400F501DE21780813
:100C5000D500F501DE217808D600F501DE217808FF
:100C6000D700F501DE217808D800F501DE217808EB
:100C7000D900F501DE217808DA00F501DE217808D7
:100C8000DF00F501DE217808E000F501DE217808BB
:100C9000E100F501DE217808E200F501DE217808A7
:100CA000D100F501DE217808DB00F501DE217808AE
:100CB000DC00F501DE217808DD000130F500DE21E1
:100CC0007808DE00F6200800831203135208013A68
:100CD0000319982E033A0319A12E013A0319AA2EDB
:100CE000073A0319B32E013A0319BC2E033A03192C
:100CF000C52E013A0319CE2E0F3A0319D72E013A09
:100D00000319E02E033A0319E92E013A0319F22ED2
:100D1000073A0319FB2E013A0319042F033A03196A
:100D20000E2F013A03191E2F1F3A0319272F08000F
:100D30005408F4002330F500F60146227708D40069
:100D400008005308F4005930F500F60146227708F0
:100D5000D30008005608F4002330F500F6014622BF
:100D60007708D60008005508F4005930F500F60160
:100D700046227708D50008005808F4002330F50013
:100D8000F60146227708D80008005708F4005930C9
:100D9000F500F60146227708D70008005A08F4004B
:100DA0002330F500F60146227708DA0008005908DA
:100DB000F4005930F500F60146227708D900080002
:100DC0005C08F4002330F500F60146227708DC00C9
:100DD00008005B08F4005930F500F6014622770858
:100DE000DB0008005E08F4002330F500F60146221F
:100DF0007708DE0008005D08F4005930F500F601C0
:100E000046227708DD0008005F08F4004030F50056
:100E10002030F60046227708DF00080060085F02F5
:100E20000318142F5F08E0006008F4005F08F50065
:100E30002030F60046227708E00008006108F40040
:100E40004030F500F60146227708E100080061080D
:100E5000620203182D2F6108E2006208F40040309E
:100E6000F5006108F60046227708E20008008312C8
:100E700003135008013A0319502F033A0319592F4D
:100E8000013A0319632F073A03199A2F013A0319FC
:100E9000A42F033A0319AA2F013A0319B32F08000C
:100EA0003B08F4009930F500F60146227708BB00B4
:100EB00008003A08F4001230F5000130F60046222E
:100EC0007708BA0008003A08F200F03072050319FA
:100ED0006E2F3A0E0F39F4007408F207F2033C0843
:100EE000FB007208FC001A20F30072038A110A1238
:100EF000031D902FF401183074020318902F3D0841
:100F0000FB007408FC001A20F5003B0875068A11E6
:100F10000A12031D8E2F2930F300902FF40A7B2F25
:100F20003908F4007308F5000130F600462277080E
:100F3000B90008003808F4000730F5000130F60069
:100F400046227708B8000800D10A5108023C031C69
:100F5000D10108003708F4002330F500F6014622DD
:100F60007708B70008003608F4005930F500F6019C
:100F700046227708B600080083120313861168081A
:100F8000F6006C218316861420308312F200F301E0
:100F9000203073020318D82FF20306110130F80035
:100FA0001020861CD52F0310F20D0615F30AC82F4A
:100FB00083168610831286157208EB000800CC3069
:100FC00083120313F2004430F300D0240800CC3025
:100FD00083120313F200BE30F300D024D724730829
:100FE000CA00D7247308C9000800831203136B08D2
:100FF0001F3A8A1503191228083A03191A28183AB1
:1010000003192228083A03192A281C3A03193728F9
:10101000083A03194128183A03194D28083A0319C8
:101020005A280800F201871CF20A72188714721CF1
:1010300087100800F201071DF20A72180715721CCA
:1010400007110800F2014E1CF20A4E107208031D2F
:101050004E140800D2088A11031DC125D001D20107
:10106000CF0A4F08033C031CCF0144250800D201DE
:10107000D00A5008073C031808008A110825D0013F
:101080000800EF01D008031948288A113727080003
:10109000D2088A11031D642608000130EF00D00831
:1010A000031955288A1137270800D2088A11031D11
:1010B00064260800D001D20A5208103C0318080028
:1010C0008A11C125D20108008316031387168312E3
:1010D000F20187128316871232308312F7008A11C9
:1010E00077208316871607308312F7007720871A38
:1010F000F0013230F70077200800831603138501D2
:1011000083128501831686010E30831286002130FA
:101110008316870038308312870083168101811778
:1011200007309F000115811401143D3083128100A6
:101130000B118B1607309000FF308F008E00831646
:101140000C148312CD010130F3008A11F524F43020
:10115000F300812004260F30F30024257508F200E7
:101160008A15F21FB6288A11392508258A11C82444
:10117000A4228B170B1708008A112621D030F50006
:10118000A520F501A520F6202621D130F500A520C7
:10119000F501DE217808B500F501DE217808B600FA
:1011A000F501DE217808B700F501DE217808B800E6
:1011B000F501DE217808B900F501DE217808BA00D2
:1011C0000130F500DE217808BB00F62008007D2004
:1011D0004D08003C8A150318E8284D1D9E29D008AB
:1011E000031D2C29BC203508293A8A150319FC282F
:1011F0003508593A031D00296420DF278A150A297A
:10120000B508031907293508303A031D0A29642057
:10121000E7274425B5088A15031D2C293808073A05
:10122000031D2C293908243C03182C293703031DDE
:1012300020293A08033A031D2029B70A8A110825F4
:101240003708023A8A15031D2C293A08103A031D63
:101250002C29B7038A110825D2088A15031D952960
:1012600056085406031D3829550853060319482902
:1012700054083706031D40295308360603198714FE
:1012800056083706031D48295508360603198710E6
:101290005A085806031D5029590857060319602992
:1012A00058083706031D582957083606031907152D
:1012B0005A083706031D6029590836060319071115
:1012C0005E085C06031D68295D085B060319782922
:1012D0005C083706031D70295B08360603190715DD
:1012E0005E083706031D78295D08360603190711C5
:1012F00060085F06031984295F084B0203188514F0
:101300004B086002031885104E18851462086106A8
:10131000031992294B0861020318051462084B0255
:1013200003180510CC08031D0514D208031D9D29C0
:10133000D008031D9D298A11A4224D118A15CD1CA8
:10134000E8283E08093C0318AF29BF0ABE01D008AF
:10135000031DAD29D2080319AF298A11A4228A11CD
:10136000BC276C086B068A150319BC298A11F5275E
:101370008A11A4226B08EC00CD108A15E82883128C
:101380000313B501B601B7010130B8000130B9004F
:101390000130BA002330BB000030BC000130BD007A
:1013A000BE01BF010830C8000130C9004630CA0084
:1013B000B301B401CB01CC01CD014E10CE10CF0151
:1013C000D001D101D201D301D401D501D601D70179
:1013D000D801D901DA01DB01DC01DD01DE012830B1
:1013E000DF002730E0002430E1002530E200083043
:1013F000E3000230E4008030E5000730E6004030D2
:10140000E7004230E800C030E9008830EA00A0017F
:10141000A101A201A301A401A501A601A701A801A0
:10142000A901AA01AB01AC01AD01AE01AF01EB0115
:10143000EC01ED010830EE000130EF00F001F101A8
:101440008A150A12E7280B1D2C2A83120313BE0AE1
:101450003D308100CD140B11831203130C1C352A6F
:10146000FF308F008E000C104D15320E8400310EAF
:0C1470008A00300E8300FF0E7F0E090082
:02400E00B13FC0
:00000001FF
