:02000000DE2FF1
:08000800FF00030E8312031335
:10001000B0000A0EB100040EB2008A150A12402880
:100020000330F207F20CF20C7F30F2050000F20B05
:10003000162808007408F700F6010310F70DF60DF6
:10004000F70DF60DF7070318F60AF7070318F60A77
:100050003330F7070318F60A003076078A00750870
:10006000F6007708820000308A000030F70049303F
:10007000422800308A000030F70055304228003016
:10008000F7006D30F6070318F70A77088A0076083C
:100090008200313428343134303431343034313426
:1000A000313430343134303431340434083412349F
:1000B0001634203424342834323436344034443432
:1000C000483452345634603464346834723476348C
:1000D000803484348834923496343F3406345B342C
:1000E0004F3466346D347D3407347F346F34000010
:1000F000000000000000000000000000F20B772864
:100100000800EC08031D85280800F930FF3E031D98
:1001100086280000EC0B852808005E08F4000F30EC
:100120007205F5001A20F300680867068A110A12A2
:10013000031D9C285F08F3078313203084006708A1
:10014000840773088000E70A0800C611C511C013B0
:100150006F08C4008711071242118030F000F008C8
:100160000319D22870086F050319B92883160716DA
:10017000BB28831607120A308312F2001020831660
:10018000871583128719C6286400C1280A30F20037
:100190001020831687110A308312F20010200310FA
:1001A000F00CAF28C5154116C112831607160A3088
:1001B0008312F20010208316871583128719E22814
:1001C0006400DD280A30F20010207110071A711443
:1001D0000A30F200102083168711831241120A3070
:1001E000F2001020F2017118F20A080083120313C2
:1001F000C611C51141150A30F200102087110712EF
:100200008316871107120A308312F200102083161A
:100210008715831287190E29640009290A30F20014
:100220001020831607160A308312F2001020071ED2
:100230001B2987191F29C615C21141110800421632
:1002400041114110C110C111411208000A3083123E
:100250000313F2001020C611C5114114831687152F
:100260000716831287110712871D5329071E53296A
:100270000A30F200102087194129C615C215411015
:1002800008000712831607120A308312F2001020AA
:100290008711831687110A308312F2001020C215CD
:1002A0004110C5150800C615C2154110C1104111F5
:1002B000C11141120800F101083071020318080051
:1002C00001307005F20072188614721C8610061137
:1002D000F0080310F00C0615F10A5C290130F0005B
:1002E000F101083071020318080083168712831287
:1002F000871270086F0503197F298316871605304A
:100300008312F20077208316871603108312F00DF4
:10031000F10A7129C611C511C013C1156F18C11694
:100320006F1CC112421587110712831607160A3077
:100330008312F2001020F1018030F000F008031960
:10034000BB298316871583128719A8296400A3295E
:100350000A30F2001020831607168312071EB229F6
:100360007008F104831687110A308312F2001020FE
:100370000310F00C9E29C515C111EF080319C329FC
:1003800083160716C529831607120A308312F20056
:1003900010208316871583128719D0296400CB2972
:1003A000C5110A30F2001020831687118312C5157B
:1003B0000A30F20010207108F20008002621D03027
:1003C000EF00A5206D08EF00A5206E08EF00A52026
:1003D000F6200800710E0F39F2008D207108F2002E
:1003E0008D2008006903031D082A6F086E06031D8F
:1003F000FC297008EE00192A0F306E05F100710813
:10040000093A031D062A0730EE07192AEE0A192AAF
:1004100070086E06031D0F2A6F08EE00192A0F30B0
:100420006E05F100F108031D182A0730EE02192AA3
:10043000EE036E08F1000800831203134F084E0408
:10044000ED0050086D0403192F2B4F03031D362AAE
:100450000330C800E7010130E8002030F100EA2154
:100460000330E8003B08F100EA21432B4F08043A2F
:10047000031D4C2A0330C8005E30A0005F30A1008D
:100480006E30A2005E08F4003808F5001A205F07FD
:10049000A3008A110A12432BD0080319072B053039
:1004A000E8005008013A0319772A033A0319892A08
:1004B000013A0319912A073A03199E2A013A0319AE
:1004C000A62A033A0319B52A013A0319BD2A0F3A9D
:1004D0000319CA2A013A0319D02A033A0319E32A55
:1004E000013A0319EB2A073A0319FF2A432B383044
:1004F000A000A1013F30A2005430A3000530C80085
:100500000430E7005208F100EA215108F100EA2125
:10051000432B0730C8000630E7005108F100EA21FC
:10052000432B7130A3000530C8000430E7005408A5
:10053000F100EA215308F100EA21432B0730C800FB
:100540000630E7005308F100EA21432B7C30A0007D
:100550005430A3000530C8000430E7005608F1000D
:10056000EA215508F100EA21432B0730C800063084
:10057000E7005508F100EA21432B7130A300053054
:10058000C8000430E7005808F100EA215708F100DC
:10059000EA21432B0730C8005708F100EA21432B1A
:1005A0003830A0003030A1005430A200A3013F3009
:1005B000A4005430A5000730C8000630E7005908F1
:1005C000F100EA21432B7130A5000630E7005A08FC
:1005D000F100EA21432B7630A0007B30A1003030BF
:1005E000A2007830A3003F30A4005430A5000730AB
:1005F000C8000630E7005B08F100EA21432B7130A8
:10060000A5000630E7005C08F100EA21432B4F0803
:10061000023A0319152B013A0319182B063A03194C
:100620001B2B033A03191E2B212B0330C800232B4D
:100630000130C800232B0530C800232B0730C80029
:10064000232B0830C800E7010130E8003908F10029
:10065000EA210330E8003A08F100EA21432B013097
:10066000E800E7013408F100EA210330E80033082C
:10067000F100EA2120083F3A0319A001CB08031931
:10068000432B4030A000D008031D552B0430E70059
:10069000351C4D2B0530E8004F2B0830E80037089B
:1006A000F100EA213608F100EA214F0AEE0002309B
:1006B000F000083070020318722B6E087006031DDC
:1006C000692B831328308400700884070130800070
:1006D000702B83132830840070088407003080005A
:1006E000F00A592BA8010518A80AA9018518A90A1A
:1006F00086116108F0005B21861586116308F00001
:100700005B21EF015D086F020318A12B3F1C8F2BAB
:1007100048086F06031D8F2BF0015B21972B831375
:10072000203084006F0884070008F0005B218313E9
:10073000283084006F0884070008F0005B21EF0A6E
:10074000822B861508008312031386118830F0006F
:100750005B21861508006D08EF006E216E08EF0022
:100760006E21080083120313ED01EE0108306E02C2
:100770000318CD2B831687128312871283168716D0
:1007800003308312F20010200310ED0C871AED17CE
:100790000630F2007720EE0AB62B6D08EE00080056
:1007A0008316071687158312C0016D08C300083031
:1007B000C000C101C201C217C511C61107128711BD
:1007C000C016F62008002621D030EF00A520EF014A
:1007D000A520EF01A5203608EF00A5203708EF007F
:1007E000A5203808EF00A5203908EF00A5203A0819
:1007F000EF00A5203B08EF00A520F62008002621E9
:10080000D030EF00A5206D08EF00A520F6202621AE
:10081000D130EF00A5200130EF008A217208EE00F0
:10082000F6206E08EF0008000E3083120313ED006F
:10083000EE01DE210F30ED00EE01DE210800262161
:10084000AE30EF00A520EF01A520EF01A520443038
:10085000EF00A5205108EF00A5205208EF00A520C9
:100860005308EF00A5205408EF00A5205508EF001D
:10087000A5205608EF00A5205708EF00A52058082E
:10088000EF00A5205908EF00A5205A08EF00A52089
:100890005B08EF00A5205C08EF00A520F6200A30D9
:1008A000EC00812008002621AE30EF00A520EF01EA
:1008B000A520EF01A520F6202621AF30EF00A520CE
:1008C000EF018A217208ED006D08443A03196C2C7F
:1008D0000130EF008A219D2CEF018A217208D1009E
:1008E000EF018A217208D200EF018A217208D30039
:1008F000EF018A217208D400EF018A217208D50025
:10090000EF018A217208D600EF018A217208D70010
:10091000EF018A217208D800EF018A217208D900FC
:10092000EF018A217208DA00EF018A217208DB00E8
:100930000130EF008A217208DC00F62008008312E3
:1009400003135008013A0319C72C033A0319D02C9A
:10095000013A0319D92C073A0319E22C013A031979
:10096000EB2C033A0319F42C013A0319FD2C0F3A2E
:100970000319062D013A03190F2D033A0319192DF6
:10098000013A0319232D073A03192D2D08005208A7
:10099000EE002330EF00F001F2217108D2000800D0
:1009A0005108EE005930EF00F001F2217108D1003A
:1009B00008005408EE002330EF00F001F221710826
:1009C000D40008005308EE005930EF00F001F22186
:1009D0007108D30008005608EE002330EF00F00144
:1009E000F2217108D60008005508EE005930EF00DA
:1009F000F001F2217108D50008005808EE002330FC
:100A0000EF00F001F2217108D80008005708EE004D
:100A10005930EF00F001F2217108D70008005908A1
:100A2000EE004030EF002030F000F2217108D900D4
:100A300008005A08EE005A08EF002030F000F221BA
:100A40007108DA0008005B08EE004030EF0020304B
:100A5000F000F2217108DB0008005C08EE00403075
:100A6000EF005B08F000F2217108DC00080083123F
:100A700003134F08013A03194D2D033A0319562D5C
:100A8000013A0319602D073A0319972D013A03190A
:100A9000A02D033A0319A82D08003B08EE00993059
:100AA000EF00F001F2217108BB0008003A08EE00E7
:100AB0001230EF000130F000F2217108BA00080096
:100AC0003A08EC00F0306C0503196B2D3A0E0F3923
:100AD000EE006E08EC07EC033C08F4006C08F5002F
:100AE0001A20ED006C038A110A12031D8D2DEE01F0
:100AF00018306E0203188D2D3D08F4006E08F500C5
:100B00001A20EF003B086F068A110A12031D8B2D75
:100B10002930ED008D2DEE0A782D3908EE006D0894
:100B2000EF000130F000F2217108B9000800380828
:100B3000EE000730EF000130F000F2217108B8003C
:100B40003708EE002330EF00F001F2217108B70002
:100B50003608EE005930EF00F001F2217108B600BE
:100B60000800F701FA01FB017308F8007408F900A6
:100B7000F61FC02DF717F509F609F50A0319F60A4D
:100B8000771AD22D751CCA2D7808FA077908031830
:100B9000790FFB070310F60CF50C0310F80DF90D97
:100BA000F70AC02DF71F0800FA09FB09FA0A031912
:100BB000FB0A08008312031386116208F0005B2110
:100BC0008316861420308312EC00ED0120306D0274
:100BD0000318F62DEC0306110130F2001020861CDC
:100BE000F32D0310EC0D0615ED0AE62D8316861085
:100BF000831286156C08E5000800CC3083120313BD
:100C0000ED004430EE00AB230800CC308312031318
:100C1000ED00BE30EE00AB23B2236E08CA00B22353
:100C20006E08C90008008312031365081F3A0319F0
:100C30002F2E083A0319372E183A03193F2E083A77
:100C40000319472E1C3A03194F2E083A0319582E40
:100C5000183A0319622E083A03196D2E0800EC01A8
:100C6000871CEC0A6C1887146C1C87100800EC01B8
:100C7000071DEC0A6C1807156C1C07110800EC0125
:100C80004D1DEC0A4D116C08031D4D150800CF01D8
:100C9000D001CE0A4E08023C031CCE010800D00150
:100CA000CF0A4F08063C03180800E323CF010800D1
:100CB000E901CF0803195E2E37250800D008031D6F
:100CC0009F2408000130E900CF080319692E372559
:100CD0000800D008031D9F240800CF01D00A500847
:100CE0000C3C03180800D0011F24080083160313CE
:100CF00087168312ED018712831687123230831212
:100D0000F20077208316871607308312F2007720CF
:100D1000871AEA013230F2007720080083160313A5
:100D2000850183128501831686010E3083128600A9
:100D300021308316870038308312870083168101A3
:100D4000811707309F000115811401143D30831273
:100D500081000B118B1607309000FF308F008E0042
:100D600083160C148312CC018B170B170130ED0086
:100D7000D02353240F30ED00FF236F08EC00EC1F4D
:100D8000C32E1424E323A3231C2208002621D030E1
:100D9000EF00A520EF01A520F6202621D130EF009D
:100DA000A520EF018A217208B500EF018A2172089F
:100DB000B600EF018A217208B700EF018A2172089C
:100DC000B800EF018A217208B900EF018A21720888
:100DD000BA000130EF008A217208BB00F62008003B
:100DE00083120313ED014908EE004A08ED04CB011C
:100DF000EE1BCB0ACB080319022FED09EE09ED0A11
:100E00000319EE0A0630F300F4016D08F5006E08D0
:100E1000F600B1257A08EF007B08F2006D08F100BA
:100E20006E08F0006E0DF00CF10C6E0DF00CF10C74
:100E30007108EF0772080318F00AF007B301B40154
:100E400003307002031D262FE8306F02031C382F79
:100E5000F01B382FE830EF020330031C0430F0029F
:100E60000030B307B40810300318B40AB407202FB9
:100E70007008803AF30080307302031D412F643004
:100E80006F02031C502F6430EF02F008031CF003C4
:100E90000030B307B40801300318B40AB407382F80
:100EA0007008803AF30080307302031D592F0A3016
:100EB0006F02031C662F0A30EF02F008031CF003D8
:100EC0001030B307B4080318B40A502F6F08B307E3
:100ED0007008F30034080318F30AF3077308B4002A
:100EE00008008E264C08003C0318722F4C1DC72F9B
:100EF000CF08031D912FC6263508293A0319842FE0
:100F00003508593A031D872F7626FD25912FB50800
:100F100003198E2F3508303A031D912F76260526AA
:100F2000F02652083706031D992F5108360603197B
:100F3000871454083706031DA12F530836060319DA
:100F4000871056083706031DA92F550836060319C2
:100F5000071558083706031DB12F57083606031921
:100F600007113408EC0059086C02031885146C084A
:100F70005A02031885104D1985146C085B0203187A
:100F800005145C086C02031805101C224C11CC1CC3
:100F9000722F3E08093C0318D32FBF0ABE014F0829
:100FA000003C031C1C22DA25660865060319DC2FA9
:100FB00013261C226508E600CC10722F831203133F
:100FC000B501B601B7010130B8000130B9000130F8
:100FD000BA002330BB000030BC000130BD00BE01B0
:100FE000BF010830C8000130C9004630CA00B30153
:100FF0002030B400CB01CC014D10CD104D11CD11DE
:101000004D12CE01CF01D001D101D201D301D401C3
:10101000D501D601D701D8012830D9002730DA0010
:101020002430DB002530DC000830DD000230DE003B
:101030008030DF000730E0004030E1004230E20065
:10104000C030E3008830E400A001A101A201A301A7
:10105000A401A501A601A701A801A901AA01AB014C
:10106000AC01AD01AE01AF01E501E601E7010830D9
:10107000E8000130E900EA01EB018A110A12712F40
:101080000B1D492883120313BE0A3D308100CC1486
:101090000B11831203130C1C5228FF308F008E009B
:1010A0000C104C15320E8400310E8A00300E830075
:0610B000FF0E7F0E090097
:02400E00B13FC0
:00000001FF
